Component: ARM Compiler 6.14.1 Tool: armlink [5db06d00]

==============================================================================

Section Cross References

    main.o(.text.main) refers to _mcpr_stm32f407.o(.text.mcpr_SetSystemCoreClock) for mcpr_SetSystemCoreClock
    main.o(.text.main) refers to tools.o(.text.LCDInit) for LCDInit
    main.o(.text.main) refers to tools.o(.text.MatrixInit) for MatrixInit
    main.o(.text.main) refers to tools.o(.text.TimerInit) for TimerInit
    main.o(.text.main) refers to tools.o(.text.BusInit) for BusInit
    main.o(.text.main) refers to tools.o(.text.ADCInit) for ADCInit
    main.o(.text.main) refers to tools.o(.text.LCD_ClearDisplay) for LCD_ClearDisplay
    main.o(.text.main) refers to tools.o(.text.MatrixRead) for MatrixRead
    main.o(.text.main) refers to tools.o(.bss.keys) for keys
    main.o(.text.main) refers to tools.o(.text.ADCRead) for ADCRead
    main.o(.text.main) refers to main.o(.rodata.str1.1) for .L.str
    main.o(.text.main) refers to sprintf.o(.text) for sprintf
    main.o(.text.main) refers to tools.o(.text.LCD_WriteString) for LCD_WriteString
    main.o(.text.main) refers to tools.o(.bss.ms) for ms
    main.o(.text.main) refers to tools.o(.text.CounterInit) for CounterInit
    main.o(.text.main) refers to tools.o(.text.FrequencyDeinit) for FrequencyDeinit
    main.o(.text.main) refers to tools.o(.bss.frequency) for frequency
    main.o(.text.main) refers to tools.o(.text.CaptureInit) for CaptureInit
==============================================================================

Removing Unused input sections from the image.

    Removing main.o(.text), (0 bytes).
    Removing main.o(.ARM.exidx.text.main), (8 bytes).
    Removing tools.o(.text), (0 bytes).
    Removing tools.o(.ARM.exidx.text.LCDInit), (8 bytes).
    Removing tools.o(.ARM.exidx.text.u_delay), (8 bytes).
    Removing tools.o(.ARM.exidx.text.LCD_WriteReg), (8 bytes).
    Removing tools.o(.ARM.exidx.text.__NVIC_SetPriority), (8 bytes).
    Removing tools.o(.ARM.exidx.text.__NVIC_EnableIRQ), (8 bytes).
    Removing tools.o(.ARM.exidx.text.MatrixInit), (8 bytes).
    Removing tools.o(.ARM.exidx.text.TimerInit), (8 bytes).
    Removing tools.o(.ARM.exidx.text.FrequencyDeinit), (8 bytes).
    Removing tools.o(.ARM.exidx.text.CaptureInit), (8 bytes).
    Removing tools.o(.ARM.exidx.text.CounterInit), (8 bytes).
    Removing tools.o(.ARM.exidx.text.__NVIC_DisableIRQ), (8 bytes).
    Removing tools.o(.ARM.exidx.text.BusInit), (8 bytes).
    Removing tools.o(.ARM.exidx.text.ADCInit), (8 bytes).
    Removing tools.o(.text.getButton), (14 bytes).
    Removing tools.o(.ARM.exidx.text.getButton), (8 bytes).
==============================================================================

Image Symbol Table

    Local Symbols

    Symbol Name                              Value     Ov Type        Size  Object(Section)

    ../clib/angel/boardlib.s                 0x00000000   Number         0  boardinit1.o ABSOLUTE
    ../clib/angel/boardlib.s                 0x00000000   Number         0  boardinit2.o ABSOLUTE
    ../clib/angel/boardlib.s                 0x00000000   Number         0  boardinit3.o ABSOLUTE
    ../clib/angel/boardlib.s                 0x00000000   Number         0  boardshut.o ABSOLUTE
    ../clib/angel/handlers.s                 0x00000000   Number         0  __scatter_copy.o ABSOLUTE
    ../clib/angel/handlers.s                 0x00000000   Number         0  __scatter_zi.o ABSOLUTE
    ../clib/angel/kernel.s                   0x00000000   Number         0  __rtentry.o ABSOLUTE
    ../clib/angel/kernel.s                   0x00000000   Number         0  __rtentry2.o ABSOLUTE
    ../clib/angel/kernel.s                   0x00000000   Number         0  __rtentry4.o ABSOLUTE
    ../clib/angel/kernel.s                   0x00000000   Number         0  rtexit.o ABSOLUTE
    ../clib/angel/kernel.s                   0x00000000   Number         0  rtexit2.o ABSOLUTE
    ../clib/angel/rt.s                       0x00000000   Number         0  rt_ctype_table.o ABSOLUTE
    ../clib/angel/rt.s                       0x00000000   Number         0  rt_locale.o ABSOLUTE
    ../clib/angel/rt.s                       0x00000000   Number         0  rt_locale_intlibspace.o ABSOLUTE
    ../clib/angel/rt.s                       0x00000000   Number         0  rt_raise.o ABSOLUTE
    ../clib/angel/scatter.s                  0x00000000   Number         0  __scatter.o ABSOLUTE
    ../clib/angel/startup.s                  0x00000000   Number         0  __main.o ABSOLUTE
    ../clib/angel/sys.s                      0x00000000   Number         0  sys_stackheap_outer.o ABSOLUTE
    ../clib/angel/sys.s                      0x00000000   Number         0  libspace.o ABSOLUTE
    ../clib/angel/sys.s                      0x00000000   Number         0  use_no_semi.o ABSOLUTE
    ../clib/angel/sys.s                      0x00000000   Number         0  indicate_semi.o ABSOLUTE
    ../clib/angel/sysapp.c                   0x00000000   Number         0  sys_exit.o ABSOLUTE
    ../clib/angel/sysapp.c                   0x00000000   Number         0  sys_exit_hlt.o ABSOLUTE
    ../clib/angel/sysapp.c                   0x00000000   Number         0  sys_command.o ABSOLUTE
    ../clib/angel/sysapp.c                   0x00000000   Number         0  sys_command_hlt.o ABSOLUTE
    ../clib/armsys.c                         0x00000000   Number         0  argv_veneer.o ABSOLUTE
    ../clib/armsys.c                         0x00000000   Number         0  argv_veneer.o ABSOLUTE
    ../clib/armsys.c                         0x00000000   Number         0  _get_argv_nomalloc.o ABSOLUTE
    ../clib/armsys.c                         0x00000000   Number         0  no_argv.o ABSOLUTE
    ../clib/bigflt.c                         0x00000000   Number         0  bigflt0.o ABSOLUTE
    ../clib/btod.s                           0x00000000   Number         0  btod.o ABSOLUTE
    ../clib/btod_accurate.c                  0x00000000   Number         0  btod_accurate.o ABSOLUTE
    ../clib/btod_accurate.c                  0x00000000   Number         0  btod_accurate_common.o ABSOLUTE
    ../clib/heapalloc.c                      0x00000000   Number         0  hrguard.o ABSOLUTE
    ../clib/heapaux.c                        0x00000000   Number         0  heapauxi.o ABSOLUTE
    ../clib/libinit.s                        0x00000000   Number         0  libinit.o ABSOLUTE
    ../clib/libinit.s                        0x00000000   Number         0  libinit2.o ABSOLUTE
    ../clib/libinit.s                        0x00000000   Number         0  libshutdown.o ABSOLUTE
    ../clib/libinit.s                        0x00000000   Number         0  libshutdown2.o ABSOLUTE
    ../clib/locale.c                         0x00000000   Number         0  _c16rtomb.o ABSOLUTE
    ../clib/locale.s                         0x00000000   Number         0  lc_numeric_c.o ABSOLUTE
    ../clib/locale.s                         0x00000000   Number         0  lc_ctype_c.o ABSOLUTE
    ../clib/longlong.s                       0x00000000   Number         0  lludiv10.o ABSOLUTE
    ../clib/longlong.s                       0x00000000   Number         0  llushr.o ABSOLUTE
    ../clib/memcpset.s                       0x00000000   Number         0  strcmpv7em.o ABSOLUTE
    ../clib/misc.s                           0x00000000   Number         0  printf_stubs.o ABSOLUTE
    ../clib/printf.c                         0x00000000   Number         0  sprintf.o ABSOLUTE
    ../clib/printf.c                         0x00000000   Number         0  __printf.o ABSOLUTE
    ../clib/printf.c                         0x00000000   Number         0  _printf_pad.o ABSOLUTE
    ../clib/printf.c                         0x00000000   Number         0  _printf_truncate.o ABSOLUTE
    ../clib/printf.c                         0x00000000   Number         0  _printf_str.o ABSOLUTE
    ../clib/printf.c                         0x00000000   Number         0  _printf_dec.o ABSOLUTE
    ../clib/printf.c                         0x00000000   Number         0  _printf_charcount.o ABSOLUTE
    ../clib/printf.c                         0x00000000   Number         0  _printf_char_common.o ABSOLUTE
    ../clib/printf.c                         0x00000000   Number         0  _sputc.o ABSOLUTE
    ../clib/printf.c                         0x00000000   Number         0  _printf_wctomb.o ABSOLUTE
    ../clib/printf.c                         0x00000000   Number         0  _printf_longlong_dec.o ABSOLUTE
    ../clib/printf.c                         0x00000000   Number         0  _printf_oct_ll.o ABSOLUTE
    ../clib/printf.c                         0x00000000   Number         0  _printf_oct_int.o ABSOLUTE
    ../clib/printf.c                         0x00000000   Number         0  _printf_oct_int_ll.o ABSOLUTE
    ../clib/printf.c                         0x00000000   Number         0  _printf_hex_ll.o ABSOLUTE
    ../clib/printf.c                         0x00000000   Number         0  _printf_hex_int.o ABSOLUTE
    ../clib/printf.c                         0x00000000   Number         0  _printf_hex_int_ll.o ABSOLUTE
    ../clib/printf.c                         0x00000000   Number         0  _printf_hex_ptr.o ABSOLUTE
    ../clib/printf.c                         0x00000000   Number         0  _printf_hex_int_ptr.o ABSOLUTE
    ../clib/printf.c                         0x00000000   Number         0  _printf_hex_ll_ptr.o ABSOLUTE
    ../clib/printf.c                         0x00000000   Number         0  _printf_hex_int_ll_ptr.o ABSOLUTE
    ../clib/printf.c                         0x00000000   Number         0  __printf_flags.o ABSOLUTE
    ../clib/printf.c                         0x00000000   Number         0  __printf_ss.o ABSOLUTE
    ../clib/printf.c                         0x00000000   Number         0  __printf_flags_ss.o ABSOLUTE
    ../clib/printf.c                         0x00000000   Number         0  __printf_wp.o ABSOLUTE
    ../clib/printf.c                         0x00000000   Number         0  __printf_flags_wp.o ABSOLUTE
    ../clib/printf.c                         0x00000000   Number         0  __printf_ss_wp.o ABSOLUTE
    ../clib/printf.c                         0x00000000   Number         0  __printf_flags_ss_wp.o ABSOLUTE
    ../clib/printf.c                         0x00000000   Number         0  _printf_intcommon.o ABSOLUTE
    ../clib/printf.c                         0x00000000   Number         0  _printf_fp_dec.o ABSOLUTE
    ../clib/printf.c                         0x00000000   Number         0  _printf_fp_dec_accurate.o ABSOLUTE
    ../clib/printf.c                         0x00000000   Number         0  _printf_fp_hex.o ABSOLUTE
    ../clib/printf.c                         0x00000000   Number         0  __printf_nopercent.o ABSOLUTE
    ../clib/printf.c                         0x00000000   Number         0  _printf_char.o ABSOLUTE
    ../clib/printf.c                         0x00000000   Number         0  _printf_wchar.o ABSOLUTE
    ../clib/printf.c                         0x00000000   Number         0  _printf_fp_infnan.o ABSOLUTE
    ../clib/printf_percent.s                 0x00000000   Number         0  _printf_c.o ABSOLUTE
    ../clib/printf_percent.s                 0x00000000   Number         0  _printf_s.o ABSOLUTE
    ../clib/printf_percent.s                 0x00000000   Number         0  _printf_n.o ABSOLUTE
    ../clib/printf_percent.s                 0x00000000   Number         0  _printf_x.o ABSOLUTE
    ../clib/printf_percent.s                 0x00000000   Number         0  _printf_p.o ABSOLUTE
    ../clib/printf_percent.s                 0x00000000   Number         0  _printf_o.o ABSOLUTE
    ../clib/printf_percent.s                 0x00000000   Number         0  _printf_i.o ABSOLUTE
    ../clib/printf_percent.s                 0x00000000   Number         0  _printf_d.o ABSOLUTE
    ../clib/printf_percent.s                 0x00000000   Number         0  _printf_u.o ABSOLUTE
    ../clib/printf_percent.s                 0x00000000   Number         0  _printf_f.o ABSOLUTE
    ../clib/printf_percent.s                 0x00000000   Number         0  _printf_e.o ABSOLUTE
    ../clib/printf_percent.s                 0x00000000   Number         0  _printf_g.o ABSOLUTE
    ../clib/printf_percent.s                 0x00000000   Number         0  _printf_a.o ABSOLUTE
    ../clib/printf_percent.s                 0x00000000   Number         0  _printf_percent.o ABSOLUTE
    ../clib/printf_percent.s                 0x00000000   Number         0  _printf_lli.o ABSOLUTE
    ../clib/printf_percent.s                 0x00000000   Number         0  _printf_lld.o ABSOLUTE
    ../clib/printf_percent.s                 0x00000000   Number         0  _printf_llu.o ABSOLUTE
    ../clib/printf_percent.s                 0x00000000   Number         0  _printf_ll.o ABSOLUTE
    ../clib/printf_percent.s                 0x00000000   Number         0  _printf_l.o ABSOLUTE
    ../clib/printf_percent.s                 0x00000000   Number         0  _printf_lc.o ABSOLUTE
    ../clib/printf_percent.s                 0x00000000   Number         0  _printf_ls.o ABSOLUTE
    ../clib/printf_percent.s                 0x00000000   Number         0  _printf_llo.o ABSOLUTE
    ../clib/printf_percent.s                 0x00000000   Number         0  _printf_llx.o ABSOLUTE
    ../clib/printf_percent.s                 0x00000000   Number         0  _printf_percent_end.o ABSOLUTE
    ../clib/signal.c                         0x00000000   Number         0  defsig_rtmem_outer.o ABSOLUTE
    ../clib/signal.c                         0x00000000   Number         0  defsig_rtmem_formal.o ABSOLUTE
    ../clib/signal.c                         0x00000000   Number         0  defsig_exit.o ABSOLUTE
    ../clib/signal.c                         0x00000000   Number         0  defsig_rtmem_inner.o ABSOLUTE
    ../clib/signal.c                         0x00000000   Number         0  __raise.o ABSOLUTE
    ../clib/signal.c                         0x00000000   Number         0  defsig_general.o ABSOLUTE
    ../clib/signal.c                         0x00000000   Number         0  defsig_abrt_inner.o ABSOLUTE
    ../clib/signal.c                         0x00000000   Number         0  defsig_fpe_inner.o ABSOLUTE
    ../clib/signal.c                         0x00000000   Number         0  defsig_rtred_inner.o ABSOLUTE
    ../clib/signal.c                         0x00000000   Number         0  defsig_stak_inner.o ABSOLUTE
    ../clib/signal.c                         0x00000000   Number         0  defsig_pvfn_inner.o ABSOLUTE
    ../clib/signal.c                         0x00000000   Number         0  defsig_cppl_inner.o ABSOLUTE
    ../clib/signal.c                         0x00000000   Number         0  defsig_segv_inner.o ABSOLUTE
    ../clib/signal.c                         0x00000000   Number         0  defsig_other.o ABSOLUTE
    ../clib/signal.s                         0x00000000   Number         0  defsig.o ABSOLUTE
    ../clib/stdlib.c                         0x00000000   Number         0  exit.o ABSOLUTE
    ../fplib/fpinit.s                        0x00000000   Number         0  fpinit.o ABSOLUTE
    ../fplib/fpinit_empty.s                  0x00000000   Number         0  fpinit_empty.o ABSOLUTE
    ../fplib/istatus.s                       0x00000000   Number         0  istatus.o ABSOLUTE
    ../fplib/printf1.s                       0x00000000   Number         0  printf1.o ABSOLUTE
    ../fplib/printf2.s                       0x00000000   Number         0  printf2.o ABSOLUTE
    ../fplib/printf2a.s                      0x00000000   Number         0  printf2a.o ABSOLUTE
    ../fplib/printf2b.s                      0x00000000   Number         0  printf2b.o ABSOLUTE
    ../fplib/usenofp.s                       0x00000000   Number         0  usenofp.o ABSOLUTE
    ../mathlib/fpclassify.c                  0x00000000   Number         0  fpclassify.o ABSOLUTE
    RTE/Device/STM32F407VGTx/startup_stm32f407xx.s 0x00000000   Number         0  startup_stm32f407xx.o ABSOLUTE
    _mcpr_stm32f407.c                        0x00000000   Number         0  _mcpr_stm32f407.o ABSOLUTE
    dc.s                                     0x00000000   Number         0  dc.o ABSOLUTE
    main.c                                   0x00000000   Number         0  main.o ABSOLUTE
    retarget_io.c                            0x00000000   Number         0  retarget_io.o ABSOLUTE
    system_stm32f4xx.c                       0x00000000   Number         0  system_stm32f4xx.o ABSOLUTE
    tools.c                                  0x00000000   Number         0  tools.o ABSOLUTE
    RESET                                    0x20000000   Section      392  startup_stm32f407xx.o(RESET)
    !!!main                                  0x20000188   Section        8  __main.o(!!!main)
    !!!scatter                               0x20000190   Section       52  __scatter.o(!!!scatter)
    !!handler_copy                           0x200001c4   Section       26  __scatter_copy.o(!!handler_copy)
    !!handler_zi                             0x200001e0   Section       28  __scatter_zi.o(!!handler_zi)
    .ARM.Collect$$_printf_percent$$00000000  0x200001fc   Section        0  _printf_percent.o(.ARM.Collect$$_printf_percent$$00000000)
    .ARM.Collect$$_printf_percent$$00000001  0x200001fc   Section        6  _printf_n.o(.ARM.Collect$$_printf_percent$$00000001)
    .ARM.Collect$$_printf_percent$$00000002  0x20000202   Section        6  _printf_p.o(.ARM.Collect$$_printf_percent$$00000002)
    .ARM.Collect$$_printf_percent$$00000003  0x20000208   Section        6  _printf_f.o(.ARM.Collect$$_printf_percent$$00000003)
    .ARM.Collect$$_printf_percent$$00000004  0x2000020e   Section        6  _printf_e.o(.ARM.Collect$$_printf_percent$$00000004)
    .ARM.Collect$$_printf_percent$$00000005  0x20000214   Section        6  _printf_g.o(.ARM.Collect$$_printf_percent$$00000005)
    .ARM.Collect$$_printf_percent$$00000006  0x2000021a   Section        6  _printf_a.o(.ARM.Collect$$_printf_percent$$00000006)
    .ARM.Collect$$_printf_percent$$00000007  0x20000220   Section       10  _printf_ll.o(.ARM.Collect$$_printf_percent$$00000007)
    .ARM.Collect$$_printf_percent$$00000008  0x2000022a   Section        6  _printf_i.o(.ARM.Collect$$_printf_percent$$00000008)
    .ARM.Collect$$_printf_percent$$00000009  0x20000230   Section        6  _printf_d.o(.ARM.Collect$$_printf_percent$$00000009)
    .ARM.Collect$$_printf_percent$$0000000A  0x20000236   Section        6  _printf_u.o(.ARM.Collect$$_printf_percent$$0000000A)
    .ARM.Collect$$_printf_percent$$0000000B  0x2000023c   Section        6  _printf_o.o(.ARM.Collect$$_printf_percent$$0000000B)
    .ARM.Collect$$_printf_percent$$0000000C  0x20000242   Section        6  _printf_x.o(.ARM.Collect$$_printf_percent$$0000000C)
    .ARM.Collect$$_printf_percent$$0000000D  0x20000248   Section        6  _printf_lli.o(.ARM.Collect$$_printf_percent$$0000000D)
    .ARM.Collect$$_printf_percent$$0000000E  0x2000024e   Section        6  _printf_lld.o(.ARM.Collect$$_printf_percent$$0000000E)
    .ARM.Collect$$_printf_percent$$0000000F  0x20000254   Section        6  _printf_llu.o(.ARM.Collect$$_printf_percent$$0000000F)
    .ARM.Collect$$_printf_percent$$00000010  0x2000025a   Section        6  _printf_llo.o(.ARM.Collect$$_printf_percent$$00000010)
    .ARM.Collect$$_printf_percent$$00000011  0x20000260   Section        6  _printf_llx.o(.ARM.Collect$$_printf_percent$$00000011)
    .ARM.Collect$$_printf_percent$$00000012  0x20000266   Section       10  _printf_l.o(.ARM.Collect$$_printf_percent$$00000012)
    .ARM.Collect$$_printf_percent$$00000013  0x20000270   Section        6  _printf_c.o(.ARM.Collect$$_printf_percent$$00000013)
    .ARM.Collect$$_printf_percent$$00000014  0x20000276   Section        6  _printf_s.o(.ARM.Collect$$_printf_percent$$00000014)
    .ARM.Collect$$_printf_percent$$00000015  0x2000027c   Section        6  _printf_lc.o(.ARM.Collect$$_printf_percent$$00000015)
    .ARM.Collect$$_printf_percent$$00000016  0x20000282   Section        6  _printf_ls.o(.ARM.Collect$$_printf_percent$$00000016)
    .ARM.Collect$$_printf_percent$$00000017  0x20000288   Section        4  _printf_percent_end.o(.ARM.Collect$$_printf_percent$$00000017)
    .ARM.Collect$$libinit$$00000000          0x2000028c   Section        2  libinit.o(.ARM.Collect$$libinit$$00000000)
    .ARM.Collect$$libinit$$00000002          0x2000028e   Section        0  libinit2.o(.ARM.Collect$$libinit$$00000002)
    .ARM.Collect$$libinit$$00000004          0x2000028e   Section        0  libinit2.o(.ARM.Collect$$libinit$$00000004)
    .ARM.Collect$$libinit$$0000000A          0x2000028e   Section        0  libinit2.o(.ARM.Collect$$libinit$$0000000A)
    .ARM.Collect$$libinit$$0000000C          0x2000028e   Section        0  libinit2.o(.ARM.Collect$$libinit$$0000000C)
    .ARM.Collect$$libinit$$0000000E          0x2000028e   Section        0  libinit2.o(.ARM.Collect$$libinit$$0000000E)
    .ARM.Collect$$libinit$$0000000F          0x2000028e   Section        6  libinit2.o(.ARM.Collect$$libinit$$0000000F)
    .ARM.Collect$$libinit$$00000011          0x20000294   Section        0  libinit2.o(.ARM.Collect$$libinit$$00000011)
    .ARM.Collect$$libinit$$00000012          0x20000294   Section       12  libinit2.o(.ARM.Collect$$libinit$$00000012)
    .ARM.Collect$$libinit$$00000013          0x200002a0   Section        0  libinit2.o(.ARM.Collect$$libinit$$00000013)
    .ARM.Collect$$libinit$$00000015          0x200002a0   Section        0  libinit2.o(.ARM.Collect$$libinit$$00000015)
    .ARM.Collect$$libinit$$00000016          0x200002a0   Section       10  libinit2.o(.ARM.Collect$$libinit$$00000016)
    .ARM.Collect$$libinit$$00000017          0x200002aa   Section        0  libinit2.o(.ARM.Collect$$libinit$$00000017)
    .ARM.Collect$$libinit$$00000019          0x200002aa   Section        0  libinit2.o(.ARM.Collect$$libinit$$00000019)
    .ARM.Collect$$libinit$$0000001B          0x200002aa   Section        0  libinit2.o(.ARM.Collect$$libinit$$0000001B)
    .ARM.Collect$$libinit$$0000001D          0x200002aa   Section        0  libinit2.o(.ARM.Collect$$libinit$$0000001D)
    .ARM.Collect$$libinit$$0000001F          0x200002aa   Section        0  libinit2.o(.ARM.Collect$$libinit$$0000001F)
    .ARM.Collect$$libinit$$00000021          0x200002aa   Section        0  libinit2.o(.ARM.Collect$$libinit$$00000021)
    .ARM.Collect$$libinit$$00000023          0x200002aa   Section        0  libinit2.o(.ARM.Collect$$libinit$$00000023)
    .ARM.Collect$$libinit$$00000025          0x200002aa   Section        0  libinit2.o(.ARM.Collect$$libinit$$00000025)
    .ARM.Collect$$libinit$$00000027          0x200002aa   Section        8  libinit2.o(.ARM.Collect$$libinit$$00000027)
    .ARM.Collect$$libinit$$0000002E          0x200002b2   Section        0  libinit2.o(.ARM.Collect$$libinit$$0000002E)
    .ARM.Collect$$libinit$$00000030          0x200002b2   Section        0  libinit2.o(.ARM.Collect$$libinit$$00000030)
    .ARM.Collect$$libinit$$00000032          0x200002b2   Section        0  libinit2.o(.ARM.Collect$$libinit$$00000032)
    .ARM.Collect$$libinit$$00000033          0x200002b2   Section        2  libinit2.o(.ARM.Collect$$libinit$$00000033)
    .ARM.Collect$$libshutdown$$00000000      0x200002b4   Section        2  libshutdown.o(.ARM.Collect$$libshutdown$$00000000)
    .ARM.Collect$$libshutdown$$00000002      0x200002b6   Section        0  libshutdown2.o(.ARM.Collect$$libshutdown$$00000002)
    .ARM.Collect$$libshutdown$$00000004      0x200002b6   Section        0  libshutdown2.o(.ARM.Collect$$libshutdown$$00000004)
    .ARM.Collect$$libshutdown$$00000007      0x200002b6   Section        0  libshutdown2.o(.ARM.Collect$$libshutdown$$00000007)
    .ARM.Collect$$libshutdown$$0000000A      0x200002b6   Section        0  libshutdown2.o(.ARM.Collect$$libshutdown$$0000000A)
    .ARM.Collect$$libshutdown$$0000000C      0x200002b6   Section        0  libshutdown2.o(.ARM.Collect$$libshutdown$$0000000C)
    .ARM.Collect$$libshutdown$$0000000F      0x200002b6   Section        0  libshutdown2.o(.ARM.Collect$$libshutdown$$0000000F)
    .ARM.Collect$$libshutdown$$00000010      0x200002b6   Section        2  libshutdown2.o(.ARM.Collect$$libshutdown$$00000010)
    .ARM.Collect$$rtentry$$00000000          0x200002b8   Section        0  __rtentry.o(.ARM.Collect$$rtentry$$00000000)
    .ARM.Collect$$rtentry$$00000002          0x200002b8   Section        0  __rtentry2.o(.ARM.Collect$$rtentry$$00000002)
    .ARM.Collect$$rtentry$$00000004          0x200002b8   Section        6  __rtentry4.o(.ARM.Collect$$rtentry$$00000004)
    .ARM.Collect$$rtentry$$00000009          0x200002be   Section        0  __rtentry2.o(.ARM.Collect$$rtentry$$00000009)
    .ARM.Collect$$rtentry$$0000000A          0x200002be   Section        4  __rtentry2.o(.ARM.Collect$$rtentry$$0000000A)
    .ARM.Collect$$rtentry$$0000000C          0x200002c2   Section        0  __rtentry2.o(.ARM.Collect$$rtentry$$0000000C)
    .ARM.Collect$$rtentry$$0000000D          0x200002c2   Section        8  __rtentry2.o(.ARM.Collect$$rtentry$$0000000D)
    .ARM.Collect$$rtexit$$00000000           0x200002ca   Section        2  rtexit.o(.ARM.Collect$$rtexit$$00000000)
    .ARM.Collect$$rtexit$$00000002           0x200002cc   Section        0  rtexit2.o(.ARM.Collect$$rtexit$$00000002)
    .ARM.Collect$$rtexit$$00000003           0x200002cc   Section        4  rtexit2.o(.ARM.Collect$$rtexit$$00000003)
    .ARM.Collect$$rtexit$$00000004           0x200002d0   Section        6  rtexit2.o(.ARM.Collect$$rtexit$$00000004)
    .emb_text                                0x200002d8   Section        4  argv_veneer.o(.emb_text)
    .text                                    0x200002dc   Section       64  startup_stm32f407xx.o(.text)
    .text                                    0x2000031c   Section        0  sprintf.o(.text)
    .text                                    0x20000348   Section      124  strcmpv7em.o(.text)
    .text                                    0x200003c4   Section        0  heapauxi.o(.text)
    .text                                    0x200003ca   Section        0  _printf_pad.o(.text)
    .text                                    0x20000418   Section        0  _printf_truncate.o(.text)
    .text                                    0x2000043c   Section        0  _printf_str.o(.text)
    .text                                    0x20000490   Section        0  _printf_dec.o(.text)
    .text                                    0x20000508   Section        0  _printf_charcount.o(.text)
    _printf_input_char                       0x20000531   Thumb Code    10  _printf_char_common.o(.text)
    .text                                    0x20000530   Section        0  _printf_char_common.o(.text)
    .text                                    0x20000560   Section        0  _sputc.o(.text)
    .text                                    0x2000056c   Section        0  _printf_wctomb.o(.text)
    .text                                    0x20000628   Section        0  _printf_longlong_dec.o(.text)
    _printf_longlong_oct_internal            0x200006a5   Thumb Code     0  _printf_oct_int_ll.o(.text)
    .text                                    0x200006a4   Section        0  _printf_oct_int_ll.o(.text)
    _printf_hex_common                       0x20000715   Thumb Code     0  _printf_hex_int_ll_ptr.o(.text)
    .text                                    0x20000714   Section        0  _printf_hex_int_ll_ptr.o(.text)
    .text                                    0x200007a8   Section        0  __printf_flags_ss_wp.o(.text)
    .text                                    0x20000930   Section      138  lludiv10.o(.text)
    .text                                    0x200009ba   Section        0  _printf_intcommon.o(.text)
    _fp_digits                               0x20000a6d   Thumb Code   432  _printf_fp_dec.o(.text)
    .text                                    0x20000a6c   Section        0  _printf_fp_dec.o(.text)
    .text                                    0x20000e88   Section        0  _printf_fp_hex.o(.text)
    .text                                    0x20001184   Section        0  _printf_char.o(.text)
    .text                                    0x200011b0   Section        0  _printf_wchar.o(.text)
    .text                                    0x200011dc   Section        0  _c16rtomb.o(.text)
    .text                                    0x20001224   Section       74  sys_stackheap_outer.o(.text)
    .text                                    0x20001270   Section       16  rt_ctype_table.o(.text)
    .text                                    0x20001280   Section        8  rt_locale_intlibspace.o(.text)
    .text                                    0x20001288   Section        0  _printf_fp_infnan.o(.text)
    .text                                    0x20001308   Section        0  bigflt0.o(.text)
    .text                                    0x200013ec   Section        0  exit.o(.text)
    .text                                    0x20001400   Section        8  libspace.o(.text)
    .text                                    0x20001408   Section        0  sys_exit.o(.text)
    .text                                    0x20001414   Section        0  _get_argv_nomalloc.o(.text)
    .text                                    0x20001542   Section        0  sys_command.o(.text)
    .text                                    0x2000155a   Section        2  use_no_semi.o(.text)
    .text                                    0x2000155c   Section        0  indicate_semi.o(.text)
    .text                                    0x2000155c   Section        0  hrguard.o(.text)
    .text                                    0x20001560   Section        0  defsig_rtmem_outer.o(.text)
    .text                                    0x2000156e   Section        0  defsig_exit.o(.text)
    .text                                    0x20001578   Section        0  defsig_rtmem_inner.o(.text)
    .text                                    0x200015c8   Section        0  defsig_general.o(.text)
    [Anonymous Symbol]                       0x200015fc   Section        0  tools.o(.text.ADCInit)
    [Anonymous Symbol]                       0x200016a4   Section        0  tools.o(.text.ADCRead)
    [Anonymous Symbol]                       0x20001748   Section        0  tools.o(.text.BusInit)
    [Anonymous Symbol]                       0x20001868   Section        0  tools.o(.text.CaptureInit)
    [Anonymous Symbol]                       0x200018c4   Section        0  tools.o(.text.CounterInit)
    [Anonymous Symbol]                       0x20001900   Section        0  tools.o(.text.DMA2_Stream0_IRQHandler)
    [Anonymous Symbol]                       0x20001944   Section        0  tools.o(.text.FrequencyDeinit)
    FrequencyInit                            0x20001959   Thumb Code   154  tools.o(.text.FrequencyInit)
    [Anonymous Symbol]                       0x20001958   Section        0  tools.o(.text.FrequencyInit)
    [Anonymous Symbol]                       0x200019f4   Section        0  tools.o(.text.LCDInit)
    [Anonymous Symbol]                       0x20001c1c   Section        0  tools.o(.text.LCD_ClearDisplay)
    [Anonymous Symbol]                       0x20001ca0   Section        0  tools.o(.text.LCD_DrawPixel)
    LCD_Output16BitWord                      0x20001cc5   Thumb Code   122  tools.o(.text.LCD_Output16BitWord)
    [Anonymous Symbol]                       0x20001cc4   Section        0  tools.o(.text.LCD_Output16BitWord)
    [Anonymous Symbol]                       0x20001d40   Section        0  tools.o(.text.LCD_SetCursor)
    LCD_WriteCommand                         0x20001d61   Thumb Code    78  tools.o(.text.LCD_WriteCommand)
    [Anonymous Symbol]                       0x20001d60   Section        0  tools.o(.text.LCD_WriteCommand)
    LCD_WriteData                            0x20001db1   Thumb Code    78  tools.o(.text.LCD_WriteData)
    [Anonymous Symbol]                       0x20001db0   Section        0  tools.o(.text.LCD_WriteData)
    [Anonymous Symbol]                       0x20001e00   Section        0  tools.o(.text.LCD_WriteLetter)
    LCD_WriteRaw                             0x20001fc5   Thumb Code   104  tools.o(.text.LCD_WriteRaw)
    [Anonymous Symbol]                       0x20001fc4   Section        0  tools.o(.text.LCD_WriteRaw)
    LCD_WriteReg                             0x2000202d   Thumb Code    40  tools.o(.text.LCD_WriteReg)
    [Anonymous Symbol]                       0x2000202c   Section        0  tools.o(.text.LCD_WriteReg)
    [Anonymous Symbol]                       0x20002054   Section        0  tools.o(.text.LCD_WriteString)
    [Anonymous Symbol]                       0x200020cc   Section        0  tools.o(.text.MatrixInit)
    [Anonymous Symbol]                       0x2000212c   Section        0  tools.o(.text.MatrixRead)
    [Anonymous Symbol]                       0x200021ac   Section        0  system_stm32f4xx.o(.text.SystemCoreClockUpdate)
    [Anonymous Symbol]                       0x200022e0   Section        0  system_stm32f4xx.o(.text.SystemInit)
    [Anonymous Symbol]                       0x200022f0   Section        0  tools.o(.text.TIM6_DAC_IRQHandler)
    [Anonymous Symbol]                       0x2000230c   Section        0  tools.o(.text.TIM7_IRQHandler)
    [Anonymous Symbol]                       0x2000238c   Section        0  tools.o(.text.TIM8_BRK_TIM12_IRQHandler)
    [Anonymous Symbol]                       0x200023e8   Section        0  tools.o(.text.TimerInit)
    [Anonymous Symbol]                       0x20002458   Section        0  tools.o(.text.USART6_IRQHandler)
    __NVIC_DisableIRQ                        0x2000267d   Thumb Code    60  tools.o(.text.__NVIC_DisableIRQ)
    [Anonymous Symbol]                       0x2000267c   Section        0  tools.o(.text.__NVIC_DisableIRQ)
    __NVIC_EnableIRQ                         0x200026b9   Thumb Code    52  tools.o(.text.__NVIC_EnableIRQ)
    [Anonymous Symbol]                       0x200026b8   Section        0  tools.o(.text.__NVIC_EnableIRQ)
    __NVIC_SetPriority                       0x200026ed   Thumb Code    68  tools.o(.text.__NVIC_SetPriority)
    [Anonymous Symbol]                       0x200026ec   Section        0  tools.o(.text.__NVIC_SetPriority)
    [Anonymous Symbol]                       0x20002730   Section        0  retarget_io.o(.text._ttywrch)
    checksum                                 0x2000273d   Thumb Code   108  tools.o(.text.checksum)
    [Anonymous Symbol]                       0x2000273c   Section        0  tools.o(.text.checksum)
    dataToReg                                0x200027a9   Thumb Code   164  tools.o(.text.dataToReg)
    [Anonymous Symbol]                       0x200027a8   Section        0  tools.o(.text.dataToReg)
    [Anonymous Symbol]                       0x2000284c   Section        0  main.o(.text.main)
    mcpr_SetSysClock                         0x200029cd   Thumb Code   328  _mcpr_stm32f407.o(.text.mcpr_SetSysClock)
    [Anonymous Symbol]                       0x200029cc   Section        0  _mcpr_stm32f407.o(.text.mcpr_SetSysClock)
    [Anonymous Symbol]                       0x20002b14   Section        0  _mcpr_stm32f407.o(.text.mcpr_SetSystemCoreClock)
    [Anonymous Symbol]                       0x20002b20   Section        0  tools.o(.text.u_delay)
    CL$$btod_d2e                             0x20002b48   Section       62  btod.o(CL$$btod_d2e)
    CL$$btod_d2e_denorm_low                  0x20002b86   Section       70  btod.o(CL$$btod_d2e_denorm_low)
    CL$$btod_d2e_norm_op1                    0x20002bcc   Section       96  btod.o(CL$$btod_d2e_norm_op1)
    CL$$btod_div_common                      0x20002c2c   Section      824  btod.o(CL$$btod_div_common)
    CL$$btod_e2e                             0x20002f64   Section      220  btod.o(CL$$btod_e2e)
    CL$$btod_ediv                            0x20003040   Section       42  btod.o(CL$$btod_ediv)
    CL$$btod_emul                            0x2000306a   Section       42  btod.o(CL$$btod_emul)
    CL$$btod_mult_common                     0x20003094   Section      580  btod.o(CL$$btod_mult_common)
    i.__ARM_fpclassify                       0x200032d8   Section        0  fpclassify.o(i.__ARM_fpclassify)
    i._is_digit                              0x20003300   Section        0  __printf_wp.o(i._is_digit)
    locale$$code                             0x20003310   Section       44  lc_numeric_c.o(locale$$code)
    locale$$code                             0x2000333c   Section       44  lc_ctype_c.o(locale$$code)
    x$fpl$printf1                            0x20003368   Section        4  printf1.o(x$fpl$printf1)
    x$fpl$printf2                            0x2000336c   Section        4  printf2.o(x$fpl$printf2)
    initial_mbstate                          0x20003370   Data           8  _printf_wctomb.o(.constdata)
    .constdata                               0x20003370   Section        8  _printf_wctomb.o(.constdata)
    x$fpl$usenofp                            0x20003370   Section        0  usenofp.o(x$fpl$usenofp)
    uc_hextab                                0x20003378   Data          20  _printf_hex_int_ll_ptr.o(.constdata)
    .constdata                               0x20003378   Section       40  _printf_hex_int_ll_ptr.o(.constdata)
    lc_hextab                                0x2000338c   Data          20  _printf_hex_int_ll_ptr.o(.constdata)
    maptable                                 0x200033a0   Data          17  __printf_flags_ss_wp.o(.constdata)
    .constdata                               0x200033a0   Section       17  __printf_flags_ss_wp.o(.constdata)
    lc_hextab                                0x200033b1   Data          19  _printf_fp_hex.o(.constdata)
    .constdata                               0x200033b1   Section       38  _printf_fp_hex.o(.constdata)
    uc_hextab                                0x200033c4   Data          19  _printf_fp_hex.o(.constdata)
    tenpwrs_x                                0x200033d8   Data          60  bigflt0.o(.constdata)
    .constdata                               0x200033d8   Section      148  bigflt0.o(.constdata)
    tenpwrs_i                                0x20003414   Data          64  bigflt0.o(.constdata)
    .L.str                                   0x2000547c   Data          13  main.o(.rodata.str1.1)
    [Anonymous Symbol]                       0x2000547c   Section        0  main.o(.rodata.str1.1)
    .L.str.1                                 0x20005489   Data          13  main.o(.rodata.str1.1)
    .L.str.3                                 0x20005496   Data          15  main.o(.rodata.str1.1)
    .L.str.2                                 0x200054a5   Data          15  main.o(.rodata.str1.1)
    locale$$data                             0x200054d4   Section       28  lc_numeric_c.o(locale$$data)
    __lcnum_c_name                           0x200054d8   Data           2  lc_numeric_c.o(locale$$data)
    __lcnum_c_start                          0x200054e0   Data           0  lc_numeric_c.o(locale$$data)
    __lcnum_c_point                          0x200054ec   Data           0  lc_numeric_c.o(locale$$data)
    __lcnum_c_thousands                      0x200054ee   Data           0  lc_numeric_c.o(locale$$data)
    __lcnum_c_grouping                       0x200054ef   Data           0  lc_numeric_c.o(locale$$data)
    __lcnum_c_end                            0x200054f0   Data           0  lc_numeric_c.o(locale$$data)
    locale$$data                             0x200054f0   Section      272  lc_ctype_c.o(locale$$data)
    __lcctype_c_name                         0x200054f4   Data           2  lc_ctype_c.o(locale$$data)
    __lcctype_c_start                        0x200054fc   Data           0  lc_ctype_c.o(locale$$data)
    __lcctype_c_end                          0x20005600   Data           0  lc_ctype_c.o(locale$$data)
    .bss                                     0x20008008   Section       96  libspace.o(.bss)
    TIM8_BRK_TIM12_IRQHandler.lastTime       0x20008068   Data           2  tools.o(.bss.TIM8_BRK_TIM12_IRQHandler.lastTime)
    [Anonymous Symbol]                       0x20008068   Section        0  tools.o(.bss.TIM8_BRK_TIM12_IRQHandler.lastTime)
    USART6_IRQHandler.LINbuffer              0x2000806c   Data           4  tools.o(.bss.USART6_IRQHandler.LINbuffer)
    [Anonymous Symbol]                       0x2000806c   Section        0  tools.o(.bss.USART6_IRQHandler.LINbuffer)
    USART6_IRQHandler.LINchecksum            0x20008070   Data           1  tools.o(.bss.USART6_IRQHandler.LINchecksum)
    [Anonymous Symbol]                       0x20008070   Section        0  tools.o(.bss.USART6_IRQHandler.LINchecksum)
    USART6_IRQHandler.LINremaining           0x20008071   Data           1  tools.o(.bss.USART6_IRQHandler.LINremaining)
    [Anonymous Symbol]                       0x20008071   Section        0  tools.o(.bss.USART6_IRQHandler.LINremaining)
    USART6_IRQHandler.LINsize                0x20008072   Data           1  tools.o(.bss.USART6_IRQHandler.LINsize)
    [Anonymous Symbol]                       0x20008072   Section        0  tools.o(.bss.USART6_IRQHandler.LINsize)
    USART6_IRQHandler.LINstate               0x20008073   Data           1  tools.o(.bss.USART6_IRQHandler.LINstate)
    [Anonymous Symbol]                       0x20008073   Section        0  tools.o(.bss.USART6_IRQHandler.LINstate)
    Heap_Mem                                 0x20008088   Data         512  startup_stm32f407xx.o(HEAP)
    HEAP                                     0x20008088   Section      512  startup_stm32f407xx.o(HEAP)
    Stack_Mem                                0x20008288   Data        1024  startup_stm32f407xx.o(STACK)
    STACK                                    0x20008288   Section     1024  startup_stm32f407xx.o(STACK)
    __initial_sp                             0x20008688   Data           0  startup_stm32f407xx.o(STACK)

    Global Symbols

    Symbol Name                              Value     Ov Type        Size  Object(Section)

    BuildAttributes$$THM_ISAv4$E$P$D$K$B$S$7EM$PE$A:L22UL41UL21$X:L11$S22US41US21$IEEE1$IW$~IW$USESV6$~STKCKD$USESV7$~SHL$OTIME$ROPI$IEEEJ$EBA8$UX$STANDARDLIB$REQ8$PRES8$EABIv2 0x00000000   Number         0  anon$$obj.o ABSOLUTE
    __fp_init_empty                          0x00000000   Number         0  fpinit_empty.o ABSOLUTE
    _printf_flags                            0x00000000   Number         0  printf_stubs.o ABSOLUTE
    _printf_return_value                     0x00000000   Number         0  printf_stubs.o ABSOLUTE
    _printf_sizespec                         0x00000000   Number         0  printf_stubs.o ABSOLUTE
    _printf_widthprec                        0x00000000   Number         0  printf_stubs.o ABSOLUTE
    __ARM_exceptions_init                     - Undefined Weak Reference
    __alloca_initialize                       - Undefined Weak Reference
    __arm_preinit_                            - Undefined Weak Reference
    __cpp_initialize__aeabi_                  - Undefined Weak Reference
    __cxa_finalize                            - Undefined Weak Reference
    __sigvec_lookup                           - Undefined Weak Reference
    _atexit_init                              - Undefined Weak Reference
    _call_atexit_fns                          - Undefined Weak Reference
    _clock_init                               - Undefined Weak Reference
    _fp_trap_init                             - Undefined Weak Reference
    _fp_trap_shutdown                         - Undefined Weak Reference
    _get_lc_collate                           - Undefined Weak Reference
    _get_lc_monetary                          - Undefined Weak Reference
    _get_lc_time                              - Undefined Weak Reference
    _getenv_init                              - Undefined Weak Reference
    _handle_redirection                       - Undefined Weak Reference
    _init_alloc                               - Undefined Weak Reference
    _init_user_alloc                          - Undefined Weak Reference
    _initio                                   - Undefined Weak Reference
    _printf_mbtowc                            - Undefined Weak Reference
    _printf_wc                                - Undefined Weak Reference
    _rand_init                                - Undefined Weak Reference
    _signal_finish                            - Undefined Weak Reference
    _signal_init                              - Undefined Weak Reference
    _terminate_alloc                          - Undefined Weak Reference
    _terminate_user_alloc                     - Undefined Weak Reference
    _terminateio                              - Undefined Weak Reference
    __Vectors_Size                           0x00000188   Number         0  startup_stm32f407xx.o ABSOLUTE
    __Vectors                                0x20000000   Data           4  startup_stm32f407xx.o(RESET)
    __Vectors_End                            0x20000188   Data           0  startup_stm32f407xx.o(RESET)
    __main                                   0x20000189   Thumb Code     8  __main.o(!!!main)
    __scatterload                            0x20000191   Thumb Code     0  __scatter.o(!!!scatter)
    __scatterload_rt2                        0x20000191   Thumb Code    44  __scatter.o(!!!scatter)
    __scatterload_rt2_thumb_only             0x20000191   Thumb Code     0  __scatter.o(!!!scatter)
    __scatterload_null                       0x2000019f   Thumb Code     0  __scatter.o(!!!scatter)
    __scatterload_copy                       0x200001c5   Thumb Code    26  __scatter_copy.o(!!handler_copy)
    __scatterload_zeroinit                   0x200001e1   Thumb Code    28  __scatter_zi.o(!!handler_zi)
    _printf_n                                0x200001fd   Thumb Code     0  _printf_n.o(.ARM.Collect$$_printf_percent$$00000001)
    _printf_percent                          0x200001fd   Thumb Code     0  _printf_percent.o(.ARM.Collect$$_printf_percent$$00000000)
    _printf_p                                0x20000203   Thumb Code     0  _printf_p.o(.ARM.Collect$$_printf_percent$$00000002)
    _printf_f                                0x20000209   Thumb Code     0  _printf_f.o(.ARM.Collect$$_printf_percent$$00000003)
    _printf_e                                0x2000020f   Thumb Code     0  _printf_e.o(.ARM.Collect$$_printf_percent$$00000004)
    _printf_g                                0x20000215   Thumb Code     0  _printf_g.o(.ARM.Collect$$_printf_percent$$00000005)
    _printf_a                                0x2000021b   Thumb Code     0  _printf_a.o(.ARM.Collect$$_printf_percent$$00000006)
    _printf_ll                               0x20000221   Thumb Code     0  _printf_ll.o(.ARM.Collect$$_printf_percent$$00000007)
    _printf_i                                0x2000022b   Thumb Code     0  _printf_i.o(.ARM.Collect$$_printf_percent$$00000008)
    _printf_d                                0x20000231   Thumb Code     0  _printf_d.o(.ARM.Collect$$_printf_percent$$00000009)
    _printf_u                                0x20000237   Thumb Code     0  _printf_u.o(.ARM.Collect$$_printf_percent$$0000000A)
    _printf_o                                0x2000023d   Thumb Code     0  _printf_o.o(.ARM.Collect$$_printf_percent$$0000000B)
    _printf_x                                0x20000243   Thumb Code     0  _printf_x.o(.ARM.Collect$$_printf_percent$$0000000C)
    _printf_lli                              0x20000249   Thumb Code     0  _printf_lli.o(.ARM.Collect$$_printf_percent$$0000000D)
    _printf_lld                              0x2000024f   Thumb Code     0  _printf_lld.o(.ARM.Collect$$_printf_percent$$0000000E)
    _printf_llu                              0x20000255   Thumb Code     0  _printf_llu.o(.ARM.Collect$$_printf_percent$$0000000F)
    _printf_llo                              0x2000025b   Thumb Code     0  _printf_llo.o(.ARM.Collect$$_printf_percent$$00000010)
    _printf_llx                              0x20000261   Thumb Code     0  _printf_llx.o(.ARM.Collect$$_printf_percent$$00000011)
    _printf_l                                0x20000267   Thumb Code     0  _printf_l.o(.ARM.Collect$$_printf_percent$$00000012)
    _printf_c                                0x20000271   Thumb Code     0  _printf_c.o(.ARM.Collect$$_printf_percent$$00000013)
    _printf_s                                0x20000277   Thumb Code     0  _printf_s.o(.ARM.Collect$$_printf_percent$$00000014)
    _printf_lc                               0x2000027d   Thumb Code     0  _printf_lc.o(.ARM.Collect$$_printf_percent$$00000015)
    _printf_ls                               0x20000283   Thumb Code     0  _printf_ls.o(.ARM.Collect$$_printf_percent$$00000016)
    _printf_percent_end                      0x20000289   Thumb Code     0  _printf_percent_end.o(.ARM.Collect$$_printf_percent$$00000017)
    __rt_lib_init                            0x2000028d   Thumb Code     0  libinit.o(.ARM.Collect$$libinit$$00000000)
    __rt_lib_init_fp_1                       0x2000028f   Thumb Code     0  libinit2.o(.ARM.Collect$$libinit$$00000002)
    __rt_lib_init_heap_1                     0x2000028f   Thumb Code     0  libinit2.o(.ARM.Collect$$libinit$$0000000A)
    __rt_lib_init_lc_common                  0x2000028f   Thumb Code     0  libinit2.o(.ARM.Collect$$libinit$$0000000F)
    __rt_lib_init_preinit_1                  0x2000028f   Thumb Code     0  libinit2.o(.ARM.Collect$$libinit$$00000004)
    __rt_lib_init_rand_1                     0x2000028f   Thumb Code     0  libinit2.o(.ARM.Collect$$libinit$$0000000E)
    __rt_lib_init_user_alloc_1               0x2000028f   Thumb Code     0  libinit2.o(.ARM.Collect$$libinit$$0000000C)
    __rt_lib_init_lc_collate_1               0x20000295   Thumb Code     0  libinit2.o(.ARM.Collect$$libinit$$00000011)
    __rt_lib_init_lc_ctype_2                 0x20000295   Thumb Code     0  libinit2.o(.ARM.Collect$$libinit$$00000012)
    __rt_lib_init_lc_ctype_1                 0x200002a1   Thumb Code     0  libinit2.o(.ARM.Collect$$libinit$$00000013)
    __rt_lib_init_lc_monetary_1              0x200002a1   Thumb Code     0  libinit2.o(.ARM.Collect$$libinit$$00000015)
    __rt_lib_init_lc_numeric_2               0x200002a1   Thumb Code     0  libinit2.o(.ARM.Collect$$libinit$$00000016)
    __rt_lib_init_argv_1                     0x200002ab   Thumb Code     0  libinit2.o(.ARM.Collect$$libinit$$00000027)
    __rt_lib_init_atexit_1                   0x200002ab   Thumb Code     0  libinit2.o(.ARM.Collect$$libinit$$0000001B)
    __rt_lib_init_clock_1                    0x200002ab   Thumb Code     0  libinit2.o(.ARM.Collect$$libinit$$00000021)
    __rt_lib_init_fp_trap_1                  0x200002ab   Thumb Code     0  libinit2.o(.ARM.Collect$$libinit$$0000001F)
    __rt_lib_init_getenv_1                   0x200002ab   Thumb Code     0  libinit2.o(.ARM.Collect$$libinit$$00000023)
    __rt_lib_init_heapregion_libspace_used   0x200002ab   Thumb Code     0  libinit2.o(.ARM.Collect$$libinit$$00000027)
    __rt_lib_init_lc_numeric_1               0x200002ab   Thumb Code     0  libinit2.o(.ARM.Collect$$libinit$$00000017)
    __rt_lib_init_lc_time_1                  0x200002ab   Thumb Code     0  libinit2.o(.ARM.Collect$$libinit$$00000019)
    __rt_lib_init_signal_1                   0x200002ab   Thumb Code     0  libinit2.o(.ARM.Collect$$libinit$$0000001D)
    __rt_lib_init_stdio_1                    0x200002ab   Thumb Code     0  libinit2.o(.ARM.Collect$$libinit$$00000025)
    __rt_lib_init_alloca_1                   0x200002b3   Thumb Code     0  libinit2.o(.ARM.Collect$$libinit$$0000002E)
    __rt_lib_init_cpp_1                      0x200002b3   Thumb Code     0  libinit2.o(.ARM.Collect$$libinit$$00000032)
    __rt_lib_init_exceptions_1               0x200002b3   Thumb Code     0  libinit2.o(.ARM.Collect$$libinit$$00000030)
    __rt_lib_init_return                     0x200002b3   Thumb Code     0  libinit2.o(.ARM.Collect$$libinit$$00000033)
    __rt_lib_shutdown                        0x200002b5   Thumb Code     0  libshutdown.o(.ARM.Collect$$libshutdown$$00000000)
    __rt_lib_shutdown_cpp_1                  0x200002b7   Thumb Code     0  libshutdown2.o(.ARM.Collect$$libshutdown$$00000002)
    __rt_lib_shutdown_fp_trap_1              0x200002b7   Thumb Code     0  libshutdown2.o(.ARM.Collect$$libshutdown$$00000007)
    __rt_lib_shutdown_heap_1                 0x200002b7   Thumb Code     0  libshutdown2.o(.ARM.Collect$$libshutdown$$0000000F)
    __rt_lib_shutdown_return                 0x200002b7   Thumb Code     0  libshutdown2.o(.ARM.Collect$$libshutdown$$00000010)
    __rt_lib_shutdown_signal_1               0x200002b7   Thumb Code     0  libshutdown2.o(.ARM.Collect$$libshutdown$$0000000A)
    __rt_lib_shutdown_stdio_1                0x200002b7   Thumb Code     0  libshutdown2.o(.ARM.Collect$$libshutdown$$00000004)
    __rt_lib_shutdown_user_alloc_1           0x200002b7   Thumb Code     0  libshutdown2.o(.ARM.Collect$$libshutdown$$0000000C)
    __rt_entry                               0x200002b9   Thumb Code     0  __rtentry.o(.ARM.Collect$$rtentry$$00000000)
    __rt_entry_presh_1                       0x200002b9   Thumb Code     0  __rtentry2.o(.ARM.Collect$$rtentry$$00000002)
    __rt_entry_sh                            0x200002b9   Thumb Code     0  __rtentry4.o(.ARM.Collect$$rtentry$$00000004)
    __rt_entry_li                            0x200002bf   Thumb Code     0  __rtentry2.o(.ARM.Collect$$rtentry$$0000000A)
    __rt_entry_postsh_1                      0x200002bf   Thumb Code     0  __rtentry2.o(.ARM.Collect$$rtentry$$00000009)
    __rt_entry_main                          0x200002c3   Thumb Code     0  __rtentry2.o(.ARM.Collect$$rtentry$$0000000D)
    __rt_entry_postli_1                      0x200002c3   Thumb Code     0  __rtentry2.o(.ARM.Collect$$rtentry$$0000000C)
    __rt_exit                                0x200002cb   Thumb Code     0  rtexit.o(.ARM.Collect$$rtexit$$00000000)
    __rt_exit_ls                             0x200002cd   Thumb Code     0  rtexit2.o(.ARM.Collect$$rtexit$$00000003)
    __rt_exit_prels_1                        0x200002cd   Thumb Code     0  rtexit2.o(.ARM.Collect$$rtexit$$00000002)
    __rt_exit_exit                           0x200002d1   Thumb Code     0  rtexit2.o(.ARM.Collect$$rtexit$$00000004)
    __ARM_argv_veneer                        0x200002d9   Thumb Code     4  argv_veneer.o(.emb_text)
    Reset_Handler                            0x200002dd   Thumb Code     8  startup_stm32f407xx.o(.text)
    NMI_Handler                              0x200002e5   Thumb Code     2  startup_stm32f407xx.o(.text)
    HardFault_Handler                        0x200002e7   Thumb Code     2  startup_stm32f407xx.o(.text)
    MemManage_Handler                        0x200002e9   Thumb Code     2  startup_stm32f407xx.o(.text)
    BusFault_Handler                         0x200002eb   Thumb Code     2  startup_stm32f407xx.o(.text)
    UsageFault_Handler                       0x200002ed   Thumb Code     2  startup_stm32f407xx.o(.text)
    SVC_Handler                              0x200002ef   Thumb Code     2  startup_stm32f407xx.o(.text)
    DebugMon_Handler                         0x200002f1   Thumb Code     2  startup_stm32f407xx.o(.text)
    PendSV_Handler                           0x200002f3   Thumb Code     2  startup_stm32f407xx.o(.text)
    SysTick_Handler                          0x200002f5   Thumb Code     2  startup_stm32f407xx.o(.text)
    ADC_IRQHandler                           0x200002f7   Thumb Code     0  startup_stm32f407xx.o(.text)
    CAN1_RX0_IRQHandler                      0x200002f7   Thumb Code     0  startup_stm32f407xx.o(.text)
    CAN1_RX1_IRQHandler                      0x200002f7   Thumb Code     0  startup_stm32f407xx.o(.text)
    CAN1_SCE_IRQHandler                      0x200002f7   Thumb Code     0  startup_stm32f407xx.o(.text)
    CAN1_TX_IRQHandler                       0x200002f7   Thumb Code     0  startup_stm32f407xx.o(.text)
    CAN2_RX0_IRQHandler                      0x200002f7   Thumb Code     0  startup_stm32f407xx.o(.text)
    CAN2_RX1_IRQHandler                      0x200002f7   Thumb Code     0  startup_stm32f407xx.o(.text)
    CAN2_SCE_IRQHandler                      0x200002f7   Thumb Code     0  startup_stm32f407xx.o(.text)
    CAN2_TX_IRQHandler                       0x200002f7   Thumb Code     0  startup_stm32f407xx.o(.text)
    DCMI_IRQHandler                          0x200002f7   Thumb Code     0  startup_stm32f407xx.o(.text)
    DMA1_Stream0_IRQHandler                  0x200002f7   Thumb Code     0  startup_stm32f407xx.o(.text)
    DMA1_Stream1_IRQHandler                  0x200002f7   Thumb Code     0  startup_stm32f407xx.o(.text)
    DMA1_Stream2_IRQHandler                  0x200002f7   Thumb Code     0  startup_stm32f407xx.o(.text)
    DMA1_Stream3_IRQHandler                  0x200002f7   Thumb Code     0  startup_stm32f407xx.o(.text)
    DMA1_Stream4_IRQHandler                  0x200002f7   Thumb Code     0  startup_stm32f407xx.o(.text)
    DMA1_Stream5_IRQHandler                  0x200002f7   Thumb Code     0  startup_stm32f407xx.o(.text)
    DMA1_Stream6_IRQHandler                  0x200002f7   Thumb Code     0  startup_stm32f407xx.o(.text)
    DMA1_Stream7_IRQHandler                  0x200002f7   Thumb Code     0  startup_stm32f407xx.o(.text)
    DMA2_Stream1_IRQHandler                  0x200002f7   Thumb Code     0  startup_stm32f407xx.o(.text)
    DMA2_Stream2_IRQHandler                  0x200002f7   Thumb Code     0  startup_stm32f407xx.o(.text)
    DMA2_Stream3_IRQHandler                  0x200002f7   Thumb Code     0  startup_stm32f407xx.o(.text)
    DMA2_Stream4_IRQHandler                  0x200002f7   Thumb Code     0  startup_stm32f407xx.o(.text)
    DMA2_Stream5_IRQHandler                  0x200002f7   Thumb Code     0  startup_stm32f407xx.o(.text)
    DMA2_Stream6_IRQHandler                  0x200002f7   Thumb Code     0  startup_stm32f407xx.o(.text)
    DMA2_Stream7_IRQHandler                  0x200002f7   Thumb Code     0  startup_stm32f407xx.o(.text)
    ETH_IRQHandler                           0x200002f7   Thumb Code     0  startup_stm32f407xx.o(.text)
    ETH_WKUP_IRQHandler                      0x200002f7   Thumb Code     0  startup_stm32f407xx.o(.text)
    EXTI0_IRQHandler                         0x200002f7   Thumb Code     0  startup_stm32f407xx.o(.text)
    EXTI15_10_IRQHandler                     0x200002f7   Thumb Code     0  startup_stm32f407xx.o(.text)
    EXTI1_IRQHandler                         0x200002f7   Thumb Code     0  startup_stm32f407xx.o(.text)
    EXTI2_IRQHandler                         0x200002f7   Thumb Code     0  startup_stm32f407xx.o(.text)
    EXTI3_IRQHandler                         0x200002f7   Thumb Code     0  startup_stm32f407xx.o(.text)
    EXTI4_IRQHandler                         0x200002f7   Thumb Code     0  startup_stm32f407xx.o(.text)
    EXTI9_5_IRQHandler                       0x200002f7   Thumb Code     0  startup_stm32f407xx.o(.text)
    FLASH_IRQHandler                         0x200002f7   Thumb Code     0  startup_stm32f407xx.o(.text)
    FMC_IRQHandler                           0x200002f7   Thumb Code     0  startup_stm32f407xx.o(.text)
    FPU_IRQHandler                           0x200002f7   Thumb Code     0  startup_stm32f407xx.o(.text)
    HASH_RNG_IRQHandler                      0x200002f7   Thumb Code     0  startup_stm32f407xx.o(.text)
    I2C1_ER_IRQHandler                       0x200002f7   Thumb Code     0  startup_stm32f407xx.o(.text)
    I2C1_EV_IRQHandler                       0x200002f7   Thumb Code     0  startup_stm32f407xx.o(.text)
    I2C2_ER_IRQHandler                       0x200002f7   Thumb Code     0  startup_stm32f407xx.o(.text)
    I2C2_EV_IRQHandler                       0x200002f7   Thumb Code     0  startup_stm32f407xx.o(.text)
    I2C3_ER_IRQHandler                       0x200002f7   Thumb Code     0  startup_stm32f407xx.o(.text)
    I2C3_EV_IRQHandler                       0x200002f7   Thumb Code     0  startup_stm32f407xx.o(.text)
    OTG_FS_IRQHandler                        0x200002f7   Thumb Code     0  startup_stm32f407xx.o(.text)
    OTG_FS_WKUP_IRQHandler                   0x200002f7   Thumb Code     0  startup_stm32f407xx.o(.text)
    OTG_HS_EP1_IN_IRQHandler                 0x200002f7   Thumb Code     0  startup_stm32f407xx.o(.text)
    OTG_HS_EP1_OUT_IRQHandler                0x200002f7   Thumb Code     0  startup_stm32f407xx.o(.text)
    OTG_HS_IRQHandler                        0x200002f7   Thumb Code     0  startup_stm32f407xx.o(.text)
    OTG_HS_WKUP_IRQHandler                   0x200002f7   Thumb Code     0  startup_stm32f407xx.o(.text)
    PVD_IRQHandler                           0x200002f7   Thumb Code     0  startup_stm32f407xx.o(.text)
    RCC_IRQHandler                           0x200002f7   Thumb Code     0  startup_stm32f407xx.o(.text)
    RTC_Alarm_IRQHandler                     0x200002f7   Thumb Code     0  startup_stm32f407xx.o(.text)
    RTC_WKUP_IRQHandler                      0x200002f7   Thumb Code     0  startup_stm32f407xx.o(.text)
    SDIO_IRQHandler                          0x200002f7   Thumb Code     0  startup_stm32f407xx.o(.text)
    SPI1_IRQHandler                          0x200002f7   Thumb Code     0  startup_stm32f407xx.o(.text)
    SPI2_IRQHandler                          0x200002f7   Thumb Code     0  startup_stm32f407xx.o(.text)
    SPI3_IRQHandler                          0x200002f7   Thumb Code     0  startup_stm32f407xx.o(.text)
    TAMP_STAMP_IRQHandler                    0x200002f7   Thumb Code     0  startup_stm32f407xx.o(.text)
    TIM1_BRK_TIM9_IRQHandler                 0x200002f7   Thumb Code     0  startup_stm32f407xx.o(.text)
    TIM1_CC_IRQHandler                       0x200002f7   Thumb Code     0  startup_stm32f407xx.o(.text)
    TIM1_TRG_COM_TIM11_IRQHandler            0x200002f7   Thumb Code     0  startup_stm32f407xx.o(.text)
    TIM1_UP_TIM10_IRQHandler                 0x200002f7   Thumb Code     0  startup_stm32f407xx.o(.text)
    TIM2_IRQHandler                          0x200002f7   Thumb Code     0  startup_stm32f407xx.o(.text)
    TIM3_IRQHandler                          0x200002f7   Thumb Code     0  startup_stm32f407xx.o(.text)
    TIM4_IRQHandler                          0x200002f7   Thumb Code     0  startup_stm32f407xx.o(.text)
    TIM5_IRQHandler                          0x200002f7   Thumb Code     0  startup_stm32f407xx.o(.text)
    TIM8_CC_IRQHandler                       0x200002f7   Thumb Code     0  startup_stm32f407xx.o(.text)
    TIM8_TRG_COM_TIM14_IRQHandler            0x200002f7   Thumb Code     0  startup_stm32f407xx.o(.text)
    TIM8_UP_TIM13_IRQHandler                 0x200002f7   Thumb Code     0  startup_stm32f407xx.o(.text)
    UART4_IRQHandler                         0x200002f7   Thumb Code     0  startup_stm32f407xx.o(.text)
    UART5_IRQHandler                         0x200002f7   Thumb Code     0  startup_stm32f407xx.o(.text)
    USART1_IRQHandler                        0x200002f7   Thumb Code     0  startup_stm32f407xx.o(.text)
    USART2_IRQHandler                        0x200002f7   Thumb Code     0  startup_stm32f407xx.o(.text)
    USART3_IRQHandler                        0x200002f7   Thumb Code     0  startup_stm32f407xx.o(.text)
    WWDG_IRQHandler                          0x200002f7   Thumb Code     0  startup_stm32f407xx.o(.text)
    __user_initial_stackheap                 0x200002f9   Thumb Code     0  startup_stm32f407xx.o(.text)
    sprintf                                  0x2000031d   Thumb Code    38  sprintf.o(.text)
    strcmp                                   0x20000349   Thumb Code   124  strcmpv7em.o(.text)
    __use_two_region_memory                  0x200003c5   Thumb Code     2  heapauxi.o(.text)
    __rt_heap_escrow$2region                 0x200003c7   Thumb Code     2  heapauxi.o(.text)
    __rt_heap_expand$2region                 0x200003c9   Thumb Code     2  heapauxi.o(.text)
    _printf_pre_padding                      0x200003cb   Thumb Code    44  _printf_pad.o(.text)
    _printf_post_padding                     0x200003f7   Thumb Code    34  _printf_pad.o(.text)
    _printf_truncate_signed                  0x20000419   Thumb Code    18  _printf_truncate.o(.text)
    _printf_truncate_unsigned                0x2000042b   Thumb Code    18  _printf_truncate.o(.text)
    _printf_str                              0x2000043d   Thumb Code    82  _printf_str.o(.text)
    _printf_int_dec                          0x20000491   Thumb Code   104  _printf_dec.o(.text)
    _printf_charcount                        0x20000509   Thumb Code    40  _printf_charcount.o(.text)
    _printf_char_common                      0x2000053b   Thumb Code    32  _printf_char_common.o(.text)
    _sputc                                   0x20000561   Thumb Code    10  _sputc.o(.text)
    _printf_wctomb                           0x2000056d   Thumb Code   182  _printf_wctomb.o(.text)
    _printf_longlong_dec                     0x20000629   Thumb Code   108  _printf_longlong_dec.o(.text)
    _printf_longlong_oct                     0x200006a5   Thumb Code    68  _printf_oct_int_ll.o(.text)
    _printf_int_oct                          0x200006e9   Thumb Code    24  _printf_oct_int_ll.o(.text)
    _printf_ll_oct                           0x20000701   Thumb Code    12  _printf_oct_int_ll.o(.text)
    _printf_longlong_hex                     0x20000715   Thumb Code    86  _printf_hex_int_ll_ptr.o(.text)
    _printf_int_hex                          0x2000076b   Thumb Code    28  _printf_hex_int_ll_ptr.o(.text)
    _printf_ll_hex                           0x20000787   Thumb Code    12  _printf_hex_int_ll_ptr.o(.text)
    _printf_hex_ptr                          0x20000793   Thumb Code    18  _printf_hex_int_ll_ptr.o(.text)
    __printf                                 0x200007a9   Thumb Code   388  __printf_flags_ss_wp.o(.text)
    _ll_udiv10                               0x20000931   Thumb Code   138  lludiv10.o(.text)
    _printf_int_common                       0x200009bb   Thumb Code   178  _printf_intcommon.o(.text)
    _printf_fp_dec_real                      0x20000c1d   Thumb Code   620  _printf_fp_dec.o(.text)
    _printf_fp_hex_real                      0x20000e89   Thumb Code   756  _printf_fp_hex.o(.text)
    _printf_cs_common                        0x20001185   Thumb Code    20  _printf_char.o(.text)
    _printf_char                             0x20001199   Thumb Code    16  _printf_char.o(.text)
    _printf_string                           0x200011a9   Thumb Code     8  _printf_char.o(.text)
    _printf_lcs_common                       0x200011b1   Thumb Code    20  _printf_wchar.o(.text)
    _printf_wchar                            0x200011c5   Thumb Code    16  _printf_wchar.o(.text)
    _printf_wstring                          0x200011d5   Thumb Code     8  _printf_wchar.o(.text)
    _c16rtomb                                0x200011dd   Thumb Code    72  _c16rtomb.o(.text)
    _wcrtomb                                 0x200011dd   Thumb Code     0  _c16rtomb.o(.text)
    __user_setup_stackheap                   0x20001225   Thumb Code    74  sys_stackheap_outer.o(.text)
    __rt_ctype_table                         0x20001271   Thumb Code    16  rt_ctype_table.o(.text)
    __rt_locale                              0x20001281   Thumb Code     8  rt_locale_intlibspace.o(.text)
    _printf_fp_infnan                        0x20001289   Thumb Code   112  _printf_fp_infnan.o(.text)
    _btod_etento                             0x20001309   Thumb Code   224  bigflt0.o(.text)
    exit                                     0x200013ed   Thumb Code    18  exit.o(.text)
    __user_libspace                          0x20001401   Thumb Code     8  libspace.o(.text)
    __user_perproc_libspace                  0x20001401   Thumb Code     0  libspace.o(.text)
    __user_perthread_libspace                0x20001401   Thumb Code     0  libspace.o(.text)
    _sys_exit                                0x20001409   Thumb Code     8  sys_exit.o(.text)
    __argv_alloc                             0x20001415   Thumb Code    34  _get_argv_nomalloc.o(.text)
    __ARM_get_argv                           0x20001437   Thumb Code   268  _get_argv_nomalloc.o(.text)
    _sys_command_string                      0x20001543   Thumb Code    24  sys_command.o(.text)
    __I$use$semihosting                      0x2000155b   Thumb Code     0  use_no_semi.o(.text)
    __use_no_semihosting_swi                 0x2000155b   Thumb Code     2  use_no_semi.o(.text)
    __semihosting_library_function           0x2000155d   Thumb Code     0  indicate_semi.o(.text)
    __use_no_heap_region                     0x2000155d   Thumb Code     2  hrguard.o(.text)
    __heap_region$guard                      0x2000155f   Thumb Code     2  hrguard.o(.text)
    __rt_SIGRTMEM                            0x20001561   Thumb Code    14  defsig_rtmem_outer.o(.text)
    __sig_exit                               0x2000156f   Thumb Code    10  defsig_exit.o(.text)
    __rt_SIGRTMEM_inner                      0x20001579   Thumb Code    22  defsig_rtmem_inner.o(.text)
    __default_signal_display                 0x200015c9   Thumb Code    50  defsig_general.o(.text)
    ADCInit                                  0x200015fd   Thumb Code   168  tools.o(.text.ADCInit)
    ADCRead                                  0x200016a5   Thumb Code   164  tools.o(.text.ADCRead)
    BusInit                                  0x20001749   Thumb Code   286  tools.o(.text.BusInit)
    CaptureInit                              0x20001869   Thumb Code    90  tools.o(.text.CaptureInit)
    CounterInit                              0x200018c5   Thumb Code    60  tools.o(.text.CounterInit)
    DMA2_Stream0_IRQHandler                  0x20001901   Thumb Code    66  tools.o(.text.DMA2_Stream0_IRQHandler)
    FrequencyDeinit                          0x20001945   Thumb Code    18  tools.o(.text.FrequencyDeinit)
    LCDInit                                  0x200019f5   Thumb Code   550  tools.o(.text.LCDInit)
    LCD_ClearDisplay                         0x20001c1d   Thumb Code   132  tools.o(.text.LCD_ClearDisplay)
    LCD_DrawPixel                            0x20001ca1   Thumb Code    34  tools.o(.text.LCD_DrawPixel)
    LCD_SetCursor                            0x20001d41   Thumb Code    32  tools.o(.text.LCD_SetCursor)
    LCD_WriteLetter                          0x20001e01   Thumb Code   450  tools.o(.text.LCD_WriteLetter)
    LCD_WriteString                          0x20002055   Thumb Code   120  tools.o(.text.LCD_WriteString)
    MatrixInit                               0x200020cd   Thumb Code    96  tools.o(.text.MatrixInit)
    MatrixRead                               0x2000212d   Thumb Code   126  tools.o(.text.MatrixRead)
    SystemCoreClockUpdate                    0x200021ad   Thumb Code   308  system_stm32f4xx.o(.text.SystemCoreClockUpdate)
    SystemInit                               0x200022e1   Thumb Code    16  system_stm32f4xx.o(.text.SystemInit)
    TIM6_DAC_IRQHandler                      0x200022f1   Thumb Code    26  tools.o(.text.TIM6_DAC_IRQHandler)
    TIM7_IRQHandler                          0x2000230d   Thumb Code   128  tools.o(.text.TIM7_IRQHandler)
    TIM8_BRK_TIM12_IRQHandler                0x2000238d   Thumb Code    92  tools.o(.text.TIM8_BRK_TIM12_IRQHandler)
    TimerInit                                0x200023e9   Thumb Code   110  tools.o(.text.TimerInit)
    USART6_IRQHandler                        0x20002459   Thumb Code   546  tools.o(.text.USART6_IRQHandler)
    _ttywrch                                 0x20002731   Thumb Code    10  retarget_io.o(.text._ttywrch)
    main                                     0x2000284d   Thumb Code   384  main.o(.text.main)
    mcpr_SetSystemCoreClock                  0x20002b15   Thumb Code    12  _mcpr_stm32f407.o(.text.mcpr_SetSystemCoreClock)
    u_delay                                  0x20002b21   Thumb Code    40  tools.o(.text.u_delay)
    _btod_d2e                                0x20002b49   Thumb Code    62  btod.o(CL$$btod_d2e)
    _d2e_denorm_low                          0x20002b87   Thumb Code    70  btod.o(CL$$btod_d2e_denorm_low)
    _d2e_norm_op1                            0x20002bcd   Thumb Code    96  btod.o(CL$$btod_d2e_norm_op1)
    __btod_div_common                        0x20002c2d   Thumb Code   696  btod.o(CL$$btod_div_common)
    _e2e                                     0x20002f65   Thumb Code   220  btod.o(CL$$btod_e2e)
    _btod_ediv                               0x20003041   Thumb Code    42  btod.o(CL$$btod_ediv)
    _btod_emul                               0x2000306b   Thumb Code    42  btod.o(CL$$btod_emul)
    __btod_mult_common                       0x20003095   Thumb Code   580  btod.o(CL$$btod_mult_common)
    __ARM_fpclassify                         0x200032d9   Thumb Code    40  fpclassify.o(i.__ARM_fpclassify)
    _is_digit                                0x20003301   Thumb Code    14  __printf_wp.o(i._is_digit)
    _get_lc_numeric                          0x20003311   Thumb Code    44  lc_numeric_c.o(locale$$code)
    _get_lc_ctype                            0x2000333d   Thumb Code    44  lc_ctype_c.o(locale$$code)
    _printf_fp_dec                           0x20003369   Thumb Code     4  printf1.o(x$fpl$printf1)
    _printf_fp_hex                           0x2000336d   Thumb Code     4  printf2.o(x$fpl$printf2)
    __I$use$fp                               0x20003370   Number         0  usenofp.o(x$fpl$usenofp)
    AHBPrescTable                            0x2000346c   Data          16  system_stm32f4xx.o(.rodata.AHBPrescTable)
    console_font_12x16                       0x2000347c   Data        8192  tools.o(.rodata.console_font_12x16)
    Region$$Table$$Base                      0x200054b4   Number         0  anon$$obj.o(Region$$Table)
    Region$$Table$$Limit                     0x200054d4   Number         0  anon$$obj.o(Region$$Table)
    __ctype                                  0x200054fd   Data           0  lc_ctype_c.o(locale$$data)
    SystemCoreClock                          0x20008000   Data           4  system_stm32f4xx.o(.data.SystemCoreClock)
    __libspace_start                         0x20008008   Data          96  libspace.o(.bss)
    __temporary_stack_top$libspace           0x20008068   Data           0  libspace.o(.bss)
    adcExitFlag                              0x20008074   Data           1  tools.o(.bss.adcExitFlag)
    clearDisplayExitFlag                     0x20008075   Data           1  tools.o(.bss.clearDisplayExitFlag)
    frequency                                0x20008078   Data           4  tools.o(.bss.frequency)
    frequencyMode                            0x2000807c   Data           1  tools.o(.bss.frequencyMode)
    keys                                     0x2000807e   Data           2  tools.o(.bss.keys)
    ms                                       0x20008080   Data           4  tools.o(.bss.ms)



==============================================================================

Memory Map of the image

  Image Entry point : 0x20000189

  Load Region LR_IROM1 (Base: 0x20000000, Size: 0x00005608, Max: 0x00008000, ABSOLUTE)

    Execution Region ER_IROM1 (Exec base: 0x20000000, Load base: 0x20000000, Size: 0x00005600, Max: 0x00008000, ABSOLUTE)

    Exec Addr    Load Addr    Size         Type   Attr      Idx    E Section Name        Object

    0x20000000   0x20000000   0x00000188   Data   RO          152    RESET               startup_stm32f407xx.o
    0x20000188   0x20000188   0x00000008   Code   RO          181  * !!!main             c_w.l(__main.o)
    0x20000190   0x20000190   0x00000034   Code   RO          510    !!!scatter          c_w.l(__scatter.o)
    0x200001c4   0x200001c4   0x0000001a   Code   RO          512    !!handler_copy      c_w.l(__scatter_copy.o)
    0x200001de   0x200001de   0x00000002   PAD
    0x200001e0   0x200001e0   0x0000001c   Code   RO          514    !!handler_zi        c_w.l(__scatter_zi.o)
    0x200001fc   0x200001fc   0x00000000   Code   RO          265    .ARM.Collect$$_printf_percent$$00000000  c_w.l(_printf_percent.o)
    0x200001fc   0x200001fc   0x00000006   Code   RO          254    .ARM.Collect$$_printf_percent$$00000001  c_w.l(_printf_n.o)
    0x20000202   0x20000202   0x00000006   Code   RO          256    .ARM.Collect$$_printf_percent$$00000002  c_w.l(_printf_p.o)
    0x20000208   0x20000208   0x00000006   Code   RO          261    .ARM.Collect$$_printf_percent$$00000003  c_w.l(_printf_f.o)
    0x2000020e   0x2000020e   0x00000006   Code   RO          262    .ARM.Collect$$_printf_percent$$00000004  c_w.l(_printf_e.o)
    0x20000214   0x20000214   0x00000006   Code   RO          263    .ARM.Collect$$_printf_percent$$00000005  c_w.l(_printf_g.o)
    0x2000021a   0x2000021a   0x00000006   Code   RO          264    .ARM.Collect$$_printf_percent$$00000006  c_w.l(_printf_a.o)
    0x20000220   0x20000220   0x0000000a   Code   RO          269    .ARM.Collect$$_printf_percent$$00000007  c_w.l(_printf_ll.o)
    0x2000022a   0x2000022a   0x00000006   Code   RO          258    .ARM.Collect$$_printf_percent$$00000008  c_w.l(_printf_i.o)
    0x20000230   0x20000230   0x00000006   Code   RO          259    .ARM.Collect$$_printf_percent$$00000009  c_w.l(_printf_d.o)
    0x20000236   0x20000236   0x00000006   Code   RO          260    .ARM.Collect$$_printf_percent$$0000000A  c_w.l(_printf_u.o)
    0x2000023c   0x2000023c   0x00000006   Code   RO          257    .ARM.Collect$$_printf_percent$$0000000B  c_w.l(_printf_o.o)
    0x20000242   0x20000242   0x00000006   Code   RO          255    .ARM.Collect$$_printf_percent$$0000000C  c_w.l(_printf_x.o)
    0x20000248   0x20000248   0x00000006   Code   RO          266    .ARM.Collect$$_printf_percent$$0000000D  c_w.l(_printf_lli.o)
    0x2000024e   0x2000024e   0x00000006   Code   RO          267    .ARM.Collect$$_printf_percent$$0000000E  c_w.l(_printf_lld.o)
    0x20000254   0x20000254   0x00000006   Code   RO          268    .ARM.Collect$$_printf_percent$$0000000F  c_w.l(_printf_llu.o)
    0x2000025a   0x2000025a   0x00000006   Code   RO          273    .ARM.Collect$$_printf_percent$$00000010  c_w.l(_printf_llo.o)
    0x20000260   0x20000260   0x00000006   Code   RO          274    .ARM.Collect$$_printf_percent$$00000011  c_w.l(_printf_llx.o)
    0x20000266   0x20000266   0x0000000a   Code   RO          270    .ARM.Collect$$_printf_percent$$00000012  c_w.l(_printf_l.o)
    0x20000270   0x20000270   0x00000006   Code   RO          252    .ARM.Collect$$_printf_percent$$00000013  c_w.l(_printf_c.o)
    0x20000276   0x20000276   0x00000006   Code   RO          253    .ARM.Collect$$_printf_percent$$00000014  c_w.l(_printf_s.o)
    0x2000027c   0x2000027c   0x00000006   Code   RO          271    .ARM.Collect$$_printf_percent$$00000015  c_w.l(_printf_lc.o)
    0x20000282   0x20000282   0x00000006   Code   RO          272    .ARM.Collect$$_printf_percent$$00000016  c_w.l(_printf_ls.o)
    0x20000288   0x20000288   0x00000004   Code   RO          315    .ARM.Collect$$_printf_percent$$00000017  c_w.l(_printf_percent_end.o)
    0x2000028c   0x2000028c   0x00000002   Code   RO          366    .ARM.Collect$$libinit$$00000000  c_w.l(libinit.o)
    0x2000028e   0x2000028e   0x00000000   Code   RO          383    .ARM.Collect$$libinit$$00000002  c_w.l(libinit2.o)
    0x2000028e   0x2000028e   0x00000000   Code   RO          385    .ARM.Collect$$libinit$$00000004  c_w.l(libinit2.o)
    0x2000028e   0x2000028e   0x00000000   Code   RO          388    .ARM.Collect$$libinit$$0000000A  c_w.l(libinit2.o)
    0x2000028e   0x2000028e   0x00000000   Code   RO          390    .ARM.Collect$$libinit$$0000000C  c_w.l(libinit2.o)
    0x2000028e   0x2000028e   0x00000000   Code   RO          392    .ARM.Collect$$libinit$$0000000E  c_w.l(libinit2.o)
    0x2000028e   0x2000028e   0x00000006   Code   RO          393    .ARM.Collect$$libinit$$0000000F  c_w.l(libinit2.o)
    0x20000294   0x20000294   0x00000000   Code   RO          395    .ARM.Collect$$libinit$$00000011  c_w.l(libinit2.o)
    0x20000294   0x20000294   0x0000000c   Code   RO          396    .ARM.Collect$$libinit$$00000012  c_w.l(libinit2.o)
    0x200002a0   0x200002a0   0x00000000   Code   RO          397    .ARM.Collect$$libinit$$00000013  c_w.l(libinit2.o)
    0x200002a0   0x200002a0   0x00000000   Code   RO          399    .ARM.Collect$$libinit$$00000015  c_w.l(libinit2.o)
    0x200002a0   0x200002a0   0x0000000a   Code   RO          400    .ARM.Collect$$libinit$$00000016  c_w.l(libinit2.o)
    0x200002aa   0x200002aa   0x00000000   Code   RO          401    .ARM.Collect$$libinit$$00000017  c_w.l(libinit2.o)
    0x200002aa   0x200002aa   0x00000000   Code   RO          403    .ARM.Collect$$libinit$$00000019  c_w.l(libinit2.o)
    0x200002aa   0x200002aa   0x00000000   Code   RO          405    .ARM.Collect$$libinit$$0000001B  c_w.l(libinit2.o)
    0x200002aa   0x200002aa   0x00000000   Code   RO          407    .ARM.Collect$$libinit$$0000001D  c_w.l(libinit2.o)
    0x200002aa   0x200002aa   0x00000000   Code   RO          409    .ARM.Collect$$libinit$$0000001F  c_w.l(libinit2.o)
    0x200002aa   0x200002aa   0x00000000   Code   RO          411    .ARM.Collect$$libinit$$00000021  c_w.l(libinit2.o)
    0x200002aa   0x200002aa   0x00000000   Code   RO          413    .ARM.Collect$$libinit$$00000023  c_w.l(libinit2.o)
    0x200002aa   0x200002aa   0x00000000   Code   RO          415    .ARM.Collect$$libinit$$00000025  c_w.l(libinit2.o)
    0x200002aa   0x200002aa   0x00000008   Code   RO          417    .ARM.Collect$$libinit$$00000027  c_w.l(libinit2.o)
    0x200002b2   0x200002b2   0x00000000   Code   RO          421    .ARM.Collect$$libinit$$0000002E  c_w.l(libinit2.o)
    0x200002b2   0x200002b2   0x00000000   Code   RO          423    .ARM.Collect$$libinit$$00000030  c_w.l(libinit2.o)
    0x200002b2   0x200002b2   0x00000000   Code   RO          425    .ARM.Collect$$libinit$$00000032  c_w.l(libinit2.o)
    0x200002b2   0x200002b2   0x00000002   Code   RO          426    .ARM.Collect$$libinit$$00000033  c_w.l(libinit2.o)
    0x200002b4   0x200002b4   0x00000002   Code   RO          450    .ARM.Collect$$libshutdown$$00000000  c_w.l(libshutdown.o)
    0x200002b6   0x200002b6   0x00000000   Code   RO          465    .ARM.Collect$$libshutdown$$00000002  c_w.l(libshutdown2.o)
    0x200002b6   0x200002b6   0x00000000   Code   RO          467    .ARM.Collect$$libshutdown$$00000004  c_w.l(libshutdown2.o)
    0x200002b6   0x200002b6   0x00000000   Code   RO          470    .ARM.Collect$$libshutdown$$00000007  c_w.l(libshutdown2.o)
    0x200002b6   0x200002b6   0x00000000   Code   RO          473    .ARM.Collect$$libshutdown$$0000000A  c_w.l(libshutdown2.o)
    0x200002b6   0x200002b6   0x00000000   Code   RO          475    .ARM.Collect$$libshutdown$$0000000C  c_w.l(libshutdown2.o)
    0x200002b6   0x200002b6   0x00000000   Code   RO          478    .ARM.Collect$$libshutdown$$0000000F  c_w.l(libshutdown2.o)
    0x200002b6   0x200002b6   0x00000002   Code   RO          479    .ARM.Collect$$libshutdown$$00000010  c_w.l(libshutdown2.o)
    0x200002b8   0x200002b8   0x00000000   Code   RO          183    .ARM.Collect$$rtentry$$00000000  c_w.l(__rtentry.o)
    0x200002b8   0x200002b8   0x00000000   Code   RO          284    .ARM.Collect$$rtentry$$00000002  c_w.l(__rtentry2.o)
    0x200002b8   0x200002b8   0x00000006   Code   RO          296    .ARM.Collect$$rtentry$$00000004  c_w.l(__rtentry4.o)
    0x200002be   0x200002be   0x00000000   Code   RO          286    .ARM.Collect$$rtentry$$00000009  c_w.l(__rtentry2.o)
    0x200002be   0x200002be   0x00000004   Code   RO          287    .ARM.Collect$$rtentry$$0000000A  c_w.l(__rtentry2.o)
    0x200002c2   0x200002c2   0x00000000   Code   RO          289    .ARM.Collect$$rtentry$$0000000C  c_w.l(__rtentry2.o)
    0x200002c2   0x200002c2   0x00000008   Code   RO          290    .ARM.Collect$$rtentry$$0000000D  c_w.l(__rtentry2.o)
    0x200002ca   0x200002ca   0x00000002   Code   RO          375    .ARM.Collect$$rtexit$$00000000  c_w.l(rtexit.o)
    0x200002cc   0x200002cc   0x00000000   Code   RO          428    .ARM.Collect$$rtexit$$00000002  c_w.l(rtexit2.o)
    0x200002cc   0x200002cc   0x00000004   Code   RO          429    .ARM.Collect$$rtexit$$00000003  c_w.l(rtexit2.o)
    0x200002d0   0x200002d0   0x00000006   Code   RO          430    .ARM.Collect$$rtexit$$00000004  c_w.l(rtexit2.o)
    0x200002d6   0x200002d6   0x00000002   PAD
    0x200002d8   0x200002d8   0x00000004   Code   RO          436    .emb_text           c_w.l(argv_veneer.o)
    0x200002dc   0x200002dc   0x00000040   Code   RO          153    .text               startup_stm32f407xx.o
    0x2000031c   0x2000031c   0x0000002c   Code   RO          175    .text               c_w.l(sprintf.o)
    0x20000348   0x20000348   0x0000007c   Code   RO          177    .text               c_w.l(strcmpv7em.o)
    0x200003c4   0x200003c4   0x00000006   Code   RO          179    .text               c_w.l(heapauxi.o)
    0x200003ca   0x200003ca   0x0000004e   Code   RO          186    .text               c_w.l(_printf_pad.o)
    0x20000418   0x20000418   0x00000024   Code   RO          188    .text               c_w.l(_printf_truncate.o)
    0x2000043c   0x2000043c   0x00000052   Code   RO          190    .text               c_w.l(_printf_str.o)
    0x2000048e   0x2000048e   0x00000002   PAD
    0x20000490   0x20000490   0x00000078   Code   RO          192    .text               c_w.l(_printf_dec.o)
    0x20000508   0x20000508   0x00000028   Code   RO          194    .text               c_w.l(_printf_charcount.o)
    0x20000530   0x20000530   0x00000030   Code   RO          196    .text               c_w.l(_printf_char_common.o)
    0x20000560   0x20000560   0x0000000a   Code   RO          198    .text               c_w.l(_sputc.o)
    0x2000056a   0x2000056a   0x00000002   PAD
    0x2000056c   0x2000056c   0x000000bc   Code   RO          200    .text               c_w.l(_printf_wctomb.o)
    0x20000628   0x20000628   0x0000007c   Code   RO          203    .text               c_w.l(_printf_longlong_dec.o)
    0x200006a4   0x200006a4   0x00000070   Code   RO          209    .text               c_w.l(_printf_oct_int_ll.o)
    0x20000714   0x20000714   0x00000094   Code   RO          229    .text               c_w.l(_printf_hex_int_ll_ptr.o)
    0x200007a8   0x200007a8   0x00000188   Code   RO          249    .text               c_w.l(__printf_flags_ss_wp.o)
    0x20000930   0x20000930   0x0000008a   Code   RO          298    .text               c_w.l(lludiv10.o)
    0x200009ba   0x200009ba   0x000000b2   Code   RO          300    .text               c_w.l(_printf_intcommon.o)
    0x20000a6c   0x20000a6c   0x0000041c   Code   RO          302    .text               c_w.l(_printf_fp_dec.o)
    0x20000e88   0x20000e88   0x000002fc   Code   RO          306    .text               c_w.l(_printf_fp_hex.o)
    0x20001184   0x20001184   0x0000002c   Code   RO          311    .text               c_w.l(_printf_char.o)
    0x200011b0   0x200011b0   0x0000002c   Code   RO          313    .text               c_w.l(_printf_wchar.o)
    0x200011dc   0x200011dc   0x00000048   Code   RO          316    .text               c_w.l(_c16rtomb.o)
    0x20001224   0x20001224   0x0000004a   Code   RO          318    .text               c_w.l(sys_stackheap_outer.o)
    0x2000126e   0x2000126e   0x00000002   PAD
    0x20001270   0x20001270   0x00000010   Code   RO          320    .text               c_w.l(rt_ctype_table.o)
    0x20001280   0x20001280   0x00000008   Code   RO          325    .text               c_w.l(rt_locale_intlibspace.o)
    0x20001288   0x20001288   0x00000080   Code   RO          327    .text               c_w.l(_printf_fp_infnan.o)
    0x20001308   0x20001308   0x000000e4   Code   RO          329    .text               c_w.l(bigflt0.o)
    0x200013ec   0x200013ec   0x00000012   Code   RO          359    .text               c_w.l(exit.o)
    0x200013fe   0x200013fe   0x00000002   PAD
    0x20001400   0x20001400   0x00000008   Code   RO          372    .text               c_w.l(libspace.o)
    0x20001408   0x20001408   0x0000000c   Code   RO          440    .text               c_w.l(sys_exit.o)
    0x20001414   0x20001414   0x0000012e   Code   RO          446    .text               c_w.l(_get_argv_nomalloc.o)
    0x20001542   0x20001542   0x00000018   Code   RO          451    .text               c_w.l(sys_command.o)
    0x2000155a   0x2000155a   0x00000002   Code   RO          455    .text               c_w.l(use_no_semi.o)
    0x2000155c   0x2000155c   0x00000000   Code   RO          457    .text               c_w.l(indicate_semi.o)
    0x2000155c   0x2000155c   0x00000004   Code   RO          458    .text               c_w.l(hrguard.o)
    0x20001560   0x20001560   0x0000000e   Code   RO          460    .text               c_w.l(defsig_rtmem_outer.o)
    0x2000156e   0x2000156e   0x0000000a   Code   RO          482    .text               c_w.l(defsig_exit.o)
    0x20001578   0x20001578   0x00000050   Code   RO          484    .text               c_w.l(defsig_rtmem_inner.o)
    0x200015c8   0x200015c8   0x00000032   Code   RO          488    .text               c_w.l(defsig_general.o)
    0x200015fa   0x200015fa   0x00000002   PAD
    0x200015fc   0x200015fc   0x000000a8   Code   RO           35    .text.ADCInit       tools.o
    0x200016a4   0x200016a4   0x000000a4   Code   RO           61    .text.ADCRead       tools.o
    0x20001748   0x20001748   0x0000011e   Code   RO           33    .text.BusInit       tools.o
    0x20001866   0x20001866   0x00000002   PAD
    0x20001868   0x20001868   0x0000005a   Code   RO           27    .text.CaptureInit   tools.o
    0x200018c2   0x200018c2   0x00000002   PAD
    0x200018c4   0x200018c4   0x0000003c   Code   RO           29    .text.CounterInit   tools.o
    0x20001900   0x20001900   0x00000042   Code   RO           73    .text.DMA2_Stream0_IRQHandler  tools.o
    0x20001942   0x20001942   0x00000002   PAD
    0x20001944   0x20001944   0x00000012   Code   RO           25    .text.FrequencyDeinit  tools.o
    0x20001956   0x20001956   0x00000002   PAD
    0x20001958   0x20001958   0x0000009a   Code   RO           75    .text.FrequencyInit  tools.o
    0x200019f2   0x200019f2   0x00000002   PAD
    0x200019f4   0x200019f4   0x00000226   Code   RO           11    .text.LCDInit       tools.o
    0x20001c1a   0x20001c1a   0x00000002   PAD
    0x20001c1c   0x20001c1c   0x00000084   Code   RO           47    .text.LCD_ClearDisplay  tools.o
    0x20001ca0   0x20001ca0   0x00000022   Code   RO           45    .text.LCD_DrawPixel  tools.o
    0x20001cc2   0x20001cc2   0x00000002   PAD
    0x20001cc4   0x20001cc4   0x0000007a   Code   RO           41    .text.LCD_Output16BitWord  tools.o
    0x20001d3e   0x20001d3e   0x00000002   PAD
    0x20001d40   0x20001d40   0x00000020   Code   RO           43    .text.LCD_SetCursor  tools.o
    0x20001d60   0x20001d60   0x0000004e   Code   RO           53    .text.LCD_WriteCommand  tools.o
    0x20001dae   0x20001dae   0x00000002   PAD
    0x20001db0   0x20001db0   0x0000004e   Code   RO           77    .text.LCD_WriteData  tools.o
    0x20001dfe   0x20001dfe   0x00000002   PAD
    0x20001e00   0x20001e00   0x000001c2   Code   RO           49    .text.LCD_WriteLetter  tools.o
    0x20001fc2   0x20001fc2   0x00000002   PAD
    0x20001fc4   0x20001fc4   0x00000068   Code   RO           55    .text.LCD_WriteRaw  tools.o
    0x2000202c   0x2000202c   0x00000028   Code   RO           15    .text.LCD_WriteReg  tools.o
    0x20002054   0x20002054   0x00000078   Code   RO           57    .text.LCD_WriteString  tools.o
    0x200020cc   0x200020cc   0x00000060   Code   RO           21    .text.MatrixInit    tools.o
    0x2000212c   0x2000212c   0x0000007e   Code   RO           59    .text.MatrixRead    tools.o
    0x200021aa   0x200021aa   0x00000002   PAD
    0x200021ac   0x200021ac   0x00000134   Code   RO          162    .text.SystemCoreClockUpdate  system_stm32f4xx.o
    0x200022e0   0x200022e0   0x00000010   Code   RO          160    .text.SystemInit    system_stm32f4xx.o
    0x200022f0   0x200022f0   0x0000001a   Code   RO           63    .text.TIM6_DAC_IRQHandler  tools.o
    0x2000230a   0x2000230a   0x00000002   PAD
    0x2000230c   0x2000230c   0x00000080   Code   RO           65    .text.TIM7_IRQHandler  tools.o
    0x2000238c   0x2000238c   0x0000005c   Code   RO           67    .text.TIM8_BRK_TIM12_IRQHandler  tools.o
    0x200023e8   0x200023e8   0x0000006e   Code   RO           23    .text.TimerInit     tools.o
    0x20002456   0x20002456   0x00000002   PAD
    0x20002458   0x20002458   0x00000222   Code   RO           69    .text.USART6_IRQHandler  tools.o
    0x2000267a   0x2000267a   0x00000002   PAD
    0x2000267c   0x2000267c   0x0000003c   Code   RO           31    .text.__NVIC_DisableIRQ  tools.o
    0x200026b8   0x200026b8   0x00000034   Code   RO           19    .text.__NVIC_EnableIRQ  tools.o
    0x200026ec   0x200026ec   0x00000044   Code   RO           17    .text.__NVIC_SetPriority  tools.o
    0x20002730   0x20002730   0x0000000a   Code   RO          132    .text._ttywrch      retarget_io.o
    0x2000273a   0x2000273a   0x00000002   PAD
    0x2000273c   0x2000273c   0x0000006c   Code   RO           71    .text.checksum      tools.o
    0x200027a8   0x200027a8   0x000000a4   Code   RO           51    .text.dataToReg     tools.o
    0x2000284c   0x2000284c   0x00000180   Code   RO            2    .text.main          main.o
    0x200029cc   0x200029cc   0x00000148   Code   RO          101    .text.mcpr_SetSysClock  _mcpr_stm32f407.o
    0x20002b14   0x20002b14   0x0000000c   Code   RO           99    .text.mcpr_SetSystemCoreClock  _mcpr_stm32f407.o
    0x20002b20   0x20002b20   0x00000028   Code   RO           13    .text.u_delay       tools.o
    0x20002b48   0x20002b48   0x0000003e   Code   RO          332    CL$$btod_d2e        c_w.l(btod.o)
    0x20002b86   0x20002b86   0x00000046   Code   RO          334    CL$$btod_d2e_denorm_low  c_w.l(btod.o)
    0x20002bcc   0x20002bcc   0x00000060   Code   RO          333    CL$$btod_d2e_norm_op1  c_w.l(btod.o)
    0x20002c2c   0x20002c2c   0x00000338   Code   RO          342    CL$$btod_div_common  c_w.l(btod.o)
    0x20002f64   0x20002f64   0x000000dc   Code   RO          339    CL$$btod_e2e        c_w.l(btod.o)
    0x20003040   0x20003040   0x0000002a   Code   RO          336    CL$$btod_ediv       c_w.l(btod.o)
    0x2000306a   0x2000306a   0x0000002a   Code   RO          335    CL$$btod_emul       c_w.l(btod.o)
    0x20003094   0x20003094   0x00000244   Code   RO          341    CL$$btod_mult_common  c_w.l(btod.o)
    0x200032d8   0x200032d8   0x00000028   Code   RO          370    i.__ARM_fpclassify  m_ws.l(fpclassify.o)
    0x20003300   0x20003300   0x0000000e   Code   RO          242    i._is_digit         c_w.l(__printf_wp.o)
    0x2000330e   0x2000330e   0x00000002   PAD
    0x20003310   0x20003310   0x0000002c   Code   RO          357    locale$$code        c_w.l(lc_numeric_c.o)
    0x2000333c   0x2000333c   0x0000002c   Code   RO          380    locale$$code        c_w.l(lc_ctype_c.o)
    0x20003368   0x20003368   0x00000004   Code   RO          275    x$fpl$printf1       fz_ws.l(printf1.o)
    0x2000336c   0x2000336c   0x00000004   Code   RO          277    x$fpl$printf2       fz_ws.l(printf2.o)
    0x20003370   0x20003370   0x00000000   Code   RO          369    x$fpl$usenofp       fz_ws.l(usenofp.o)
    0x20003370   0x20003370   0x00000008   Data   RO          201    .constdata          c_w.l(_printf_wctomb.o)
    0x20003378   0x20003378   0x00000028   Data   RO          230    .constdata          c_w.l(_printf_hex_int_ll_ptr.o)
    0x200033a0   0x200033a0   0x00000011   Data   RO          250    .constdata          c_w.l(__printf_flags_ss_wp.o)
    0x200033b1   0x200033b1   0x00000026   Data   RO          307    .constdata          c_w.l(_printf_fp_hex.o)
    0x200033d7   0x200033d7   0x00000001   PAD
    0x200033d8   0x200033d8   0x00000094   Data   RO          330    .constdata          c_w.l(bigflt0.o)
    0x2000346c   0x2000346c   0x00000010   Data   RO          165    .rodata.AHBPrescTable  system_stm32f4xx.o
    0x2000347c   0x2000347c   0x00002000   Data   RO           79    .rodata.console_font_12x16  tools.o
    0x2000547c   0x2000547c   0x00000038   Data   RO            4    .rodata.str1.1      main.o
    0x200054b4   0x200054b4   0x00000020   Data   RO          509    Region$$Table       anon$$obj.o
    0x200054d4   0x200054d4   0x0000001c   Data   RO          356    locale$$data        c_w.l(lc_numeric_c.o)
    0x200054f0   0x200054f0   0x00000110   Data   RO          379    locale$$data        c_w.l(lc_ctype_c.o)


    Execution Region RW_IRAM1 (Exec base: 0x20008000, Load base: 0x20005600, Size: 0x00000688, Max: 0x00018000, ABSOLUTE)

    Exec Addr    Load Addr    Size         Type   Attr      Idx    E Section Name        Object

    0x20008000   0x20005600   0x00000004   Data   RW          164    .data.SystemCoreClock  system_stm32f4xx.o
    0x20008004   0x20005604   0x00000004   PAD
    0x20008008        -       0x00000060   Zero   RW          373    .bss                c_w.l(libspace.o)
    0x20008068        -       0x00000002   Zero   RW           85    .bss.TIM8_BRK_TIM12_IRQHandler.lastTime  tools.o
    0x2000806a   0x20005604   0x00000002   PAD
    0x2000806c        -       0x00000004   Zero   RW           90    .bss.USART6_IRQHandler.LINbuffer  tools.o
    0x20008070        -       0x00000001   Zero   RW           89    .bss.USART6_IRQHandler.LINchecksum  tools.o
    0x20008071        -       0x00000001   Zero   RW           88    .bss.USART6_IRQHandler.LINremaining  tools.o
    0x20008072        -       0x00000001   Zero   RW           87    .bss.USART6_IRQHandler.LINsize  tools.o
    0x20008073        -       0x00000001   Zero   RW           86    .bss.USART6_IRQHandler.LINstate  tools.o
    0x20008074        -       0x00000001   Zero   RW           82    .bss.adcExitFlag    tools.o
    0x20008075        -       0x00000001   Zero   RW           83    .bss.clearDisplayExitFlag  tools.o
    0x20008076   0x20005604   0x00000002   PAD
    0x20008078        -       0x00000004   Zero   RW           84    .bss.frequency      tools.o
    0x2000807c        -       0x00000001   Zero   RW           81    .bss.frequencyMode  tools.o
    0x2000807d   0x20005604   0x00000001   PAD
    0x2000807e        -       0x00000002   Zero   RW           91    .bss.keys           tools.o
    0x20008080        -       0x00000004   Zero   RW           80    .bss.ms             tools.o
    0x20008084   0x20005604   0x00000004   PAD
    0x20008088        -       0x00000200   Zero   RW          151    HEAP                startup_stm32f407xx.o
    0x20008288        -       0x00000400   Zero   RW          150    STACK               startup_stm32f407xx.o


==============================================================================

Image component sizes


      Code (inc. data)   RO Data    RW Data    ZI Data      Debug   Object Name

       340          0          0          0          0       5659   _mcpr_stm32f407.o
       384          0         56          0          0        924   main.o
        10          0          0          0          0       2950   retarget_io.o
        64         26        392          0       1536        824   startup_stm32f407xx.o
       324          0         16          4          0       2628   system_stm32f4xx.o
      4362          4       8192          0         23      12198   tools.o

    ----------------------------------------------------------------------
      5516         30       8688          4       1572      25183   Object Totals
         0          0         32          0          0          0   (incl. Generated)
        32          0          0          0         13          0   (incl. Padding)

    ----------------------------------------------------------------------

      Code (inc. data)   RO Data    RW Data    ZI Data      Debug   Library Member Name

         8          0          0          0          0         68   __main.o
       392          4         17          0          0         92   __printf_flags_ss_wp.o
        14          0          0          0          0         68   __printf_wp.o
         0          0          0          0          0          0   __rtentry.o
        12          0          0          0          0          0   __rtentry2.o
         6          0          0          0          0          0   __rtentry4.o
        52          8          0          0          0          0   __scatter.o
        26          0          0          0          0          0   __scatter_copy.o
        28          0          0          0          0          0   __scatter_zi.o
        72          0          0          0          0         96   _c16rtomb.o
       302          0          0          0          0        168   _get_argv_nomalloc.o
         6          0          0          0          0          0   _printf_a.o
         6          0          0          0          0          0   _printf_c.o
        44          0          0          0          0        108   _printf_char.o
        48          6          0          0          0         96   _printf_char_common.o
        40          0          0          0          0         68   _printf_charcount.o
         6          0          0          0          0          0   _printf_d.o
       120         16          0          0          0         92   _printf_dec.o
         6          0          0          0          0          0   _printf_e.o
         6          0          0          0          0          0   _printf_f.o
      1052          0          0          0          0        148   _printf_fp_dec.o
       764          8         38          0          0        100   _printf_fp_hex.o
       128         16          0          0          0         84   _printf_fp_infnan.o
         6          0          0          0          0          0   _printf_g.o
       148          4         40          0          0        160   _printf_hex_int_ll_ptr.o
         6          0          0          0          0          0   _printf_i.o
       178          0          0          0          0         88   _printf_intcommon.o
        10          0          0          0          0          0   _printf_l.o
         6          0          0          0          0          0   _printf_lc.o
        10          0          0          0          0          0   _printf_ll.o
         6          0          0          0          0          0   _printf_lld.o
         6          0          0          0          0          0   _printf_lli.o
         6          0          0          0          0          0   _printf_llo.o
         6          0          0          0          0          0   _printf_llu.o
         6          0          0          0          0          0   _printf_llx.o
       124         16          0          0          0         92   _printf_longlong_dec.o
         6          0          0          0          0          0   _printf_ls.o
         6          0          0          0          0          0   _printf_n.o
         6          0          0          0          0          0   _printf_o.o
       112          8          0          0          0        124   _printf_oct_int_ll.o
         6          0          0          0          0          0   _printf_p.o
        78          0          0          0          0        108   _printf_pad.o
         0          0          0          0          0          0   _printf_percent.o
         4          0          0          0          0          0   _printf_percent_end.o
         6          0          0          0          0          0   _printf_s.o
        82          0          0          0          0         80   _printf_str.o
        36          0          0          0          0         84   _printf_truncate.o
         6          0          0          0          0          0   _printf_u.o
        44          0          0          0          0        108   _printf_wchar.o
       188          6          8          0          0         92   _printf_wctomb.o
         6          0          0          0          0          0   _printf_x.o
        10          0          0          0          0         68   _sputc.o
         4          0          0          0          0         68   argv_veneer.o
       228          4        148          0          0         96   bigflt0.o
      1936        128          0          0          0        672   btod.o
        10          0          0          0          0         68   defsig_exit.o
        50          0          0          0          0         88   defsig_general.o
        80         58          0          0          0         76   defsig_rtmem_inner.o
        14          0          0          0          0         80   defsig_rtmem_outer.o
        18          0          0          0          0         80   exit.o
         6          0          0          0          0        152   heapauxi.o
         4          0          0          0          0        136   hrguard.o
         0          0          0          0          0          0   indicate_semi.o
        44         10        272          0          0         76   lc_ctype_c.o
        44         10         28          0          0         76   lc_numeric_c.o
         2          0          0          0          0          0   libinit.o
        38          0          0          0          0          0   libinit2.o
         2          0          0          0          0          0   libshutdown.o
         2          0          0          0          0          0   libshutdown2.o
         8          4          0          0         96         68   libspace.o
       138          0          0          0          0         80   lludiv10.o
        16          4          0          0          0         76   rt_ctype_table.o
         8          4          0          0          0         68   rt_locale_intlibspace.o
         2          0          0          0          0          0   rtexit.o
        10          0          0          0          0          0   rtexit2.o
        44          6          0          0          0         84   sprintf.o
       124          0          0          0          0         88   strcmpv7em.o
        24          0          0          0          0         76   sys_command.o
        12          4          0          0          0         68   sys_exit.o
        74          0          0          0          0         80   sys_stackheap_outer.o
         2          0          0          0          0         68   use_no_semi.o
         4          0          0          0          0         68   printf1.o
         4          0          0          0          0         68   printf2.o
         0          0          0          0          0          0   usenofp.o
        40          0          0          0          0         68   fpclassify.o

    ----------------------------------------------------------------------
      7260        324        552          0         96       4820   Library Totals
        16          0          1          0          0          0   (incl. Padding)

    ----------------------------------------------------------------------

      Code (inc. data)   RO Data    RW Data    ZI Data      Debug   Library Name

      7196        324        551          0         96       4616   c_w.l
         8          0          0          0          0        136   fz_ws.l
        40          0          0          0          0         68   m_ws.l

    ----------------------------------------------------------------------
      7260        324        552          0         96       4820   Library Totals

    ----------------------------------------------------------------------

==============================================================================


      Code (inc. data)   RO Data    RW Data    ZI Data      Debug   

     12776        354       9240          4       1668      27335   Grand Totals
     12776        354       9240          4       1668      27335   ELF Image Totals
     12776        354       9240          4          0          0   ROM Totals

==============================================================================

    Total RO  Size (Code + RO Data)                22016 (  21.50kB)
    Total RW  Size (RW Data + ZI Data)              1672 (   1.63kB)
    Total ROM Size (Code + RO Data + RW Data)      22020 (  21.50kB)

==============================================================================

